{
  "_format": "hh-sol-artifact-1",
  "contractName": "Trace",
  "sourceName": "contracts/Trace.sol",
  "abi": [
    {
      "inputs": [
        {
          "internalType": "address",
          "name": "_supplier",
          "type": "address"
        },
        {
          "internalType": "address",
          "name": "_rph",
          "type": "address"
        },
        {
          "internalType": "address",
          "name": "_distributor",
          "type": "address"
        },
        {
          "internalType": "address",
          "name": "_rumahMakan",
          "type": "address"
        }
      ],
      "stateMutability": "nonpayable",
      "type": "constructor"
    },
    {
      "anonymous": false,
      "inputs": [
        {
          "indexed": true,
          "internalType": "bytes32",
          "name": "role",
          "type": "bytes32"
        },
        {
          "indexed": true,
          "internalType": "bytes32",
          "name": "previousAdminRole",
          "type": "bytes32"
        },
        {
          "indexed": true,
          "internalType": "bytes32",
          "name": "newAdminRole",
          "type": "bytes32"
        }
      ],
      "name": "RoleAdminChanged",
      "type": "event"
    },
    {
      "anonymous": false,
      "inputs": [
        {
          "indexed": true,
          "internalType": "bytes32",
          "name": "role",
          "type": "bytes32"
        },
        {
          "indexed": true,
          "internalType": "address",
          "name": "account",
          "type": "address"
        },
        {
          "indexed": true,
          "internalType": "address",
          "name": "sender",
          "type": "address"
        }
      ],
      "name": "RoleGranted",
      "type": "event"
    },
    {
      "anonymous": false,
      "inputs": [
        {
          "indexed": true,
          "internalType": "bytes32",
          "name": "role",
          "type": "bytes32"
        },
        {
          "indexed": true,
          "internalType": "address",
          "name": "account",
          "type": "address"
        },
        {
          "indexed": true,
          "internalType": "address",
          "name": "sender",
          "type": "address"
        }
      ],
      "name": "RoleRevoked",
      "type": "event"
    },
    {
      "anonymous": false,
      "inputs": [
        {
          "indexed": false,
          "internalType": "string",
          "name": "ID_Makanan",
          "type": "string"
        },
        {
          "indexed": false,
          "internalType": "string",
          "name": "ID_ProdukDistributor",
          "type": "string"
        },
        {
          "indexed": false,
          "internalType": "address",
          "name": "Akun_RumahMakan",
          "type": "address"
        },
        {
          "indexed": false,
          "internalType": "string",
          "name": "nama",
          "type": "string"
        },
        {
          "indexed": false,
          "internalType": "string",
          "name": "tanggal_pengolahan",
          "type": "string"
        },
        {
          "indexed": false,
          "internalType": "bool",
          "name": "status_kehalalan",
          "type": "bool"
        },
        {
          "indexed": false,
          "internalType": "uint256",
          "name": "date",
          "type": "uint256"
        }
      ],
      "name": "TraceMakanan",
      "type": "event"
    },
    {
      "anonymous": false,
      "inputs": [
        {
          "indexed": false,
          "internalType": "string",
          "name": "ID_Pemotongan",
          "type": "string"
        },
        {
          "indexed": false,
          "internalType": "string",
          "name": "ID_Supplier",
          "type": "string"
        },
        {
          "indexed": false,
          "internalType": "address",
          "name": "Akun_RPH",
          "type": "address"
        },
        {
          "indexed": false,
          "internalType": "string",
          "name": "tanggal_pemotongan",
          "type": "string"
        },
        {
          "indexed": false,
          "internalType": "bool",
          "name": "status_kehalalan",
          "type": "bool"
        },
        {
          "indexed": false,
          "internalType": "uint256",
          "name": "date",
          "type": "uint256"
        }
      ],
      "name": "TracePemotongan",
      "type": "event"
    },
    {
      "anonymous": false,
      "inputs": [
        {
          "indexed": false,
          "internalType": "string",
          "name": "ID_ProdukDistributor",
          "type": "string"
        },
        {
          "indexed": false,
          "internalType": "string",
          "name": "ID_ProdukRPH",
          "type": "string"
        },
        {
          "indexed": false,
          "internalType": "address",
          "name": "Akun_Distributor",
          "type": "address"
        },
        {
          "indexed": false,
          "internalType": "string",
          "name": "tanggal_penyimpanan",
          "type": "string"
        },
        {
          "indexed": false,
          "internalType": "string",
          "name": "tanggal_pengiriman",
          "type": "string"
        },
        {
          "indexed": false,
          "internalType": "string",
          "name": "tanggal_penerimaan",
          "type": "string"
        },
        {
          "indexed": false,
          "internalType": "bool",
          "name": "status_kehalalan",
          "type": "bool"
        },
        {
          "indexed": false,
          "internalType": "uint256",
          "name": "date",
          "type": "uint256"
        }
      ],
      "name": "TraceProdukDistributor",
      "type": "event"
    },
    {
      "anonymous": false,
      "inputs": [
        {
          "indexed": false,
          "internalType": "string",
          "name": "ID_ProdukRPH",
          "type": "string"
        },
        {
          "indexed": false,
          "internalType": "string",
          "name": "ID_Pemotongan",
          "type": "string"
        },
        {
          "indexed": false,
          "internalType": "address",
          "name": "Akun_RPH",
          "type": "address"
        },
        {
          "indexed": false,
          "internalType": "bool",
          "name": "status_kehalalan",
          "type": "bool"
        },
        {
          "indexed": false,
          "internalType": "uint256",
          "name": "date",
          "type": "uint256"
        }
      ],
      "name": "TraceProdukRPH",
      "type": "event"
    },
    {
      "anonymous": false,
      "inputs": [
        {
          "indexed": false,
          "internalType": "string",
          "name": "ID_Supplier",
          "type": "string"
        },
        {
          "indexed": false,
          "internalType": "address",
          "name": "Akun_Supplier",
          "type": "address"
        },
        {
          "indexed": false,
          "internalType": "string",
          "name": "jenis_kelamin",
          "type": "string"
        },
        {
          "indexed": false,
          "internalType": "string",
          "name": "berat_sapi",
          "type": "string"
        },
        {
          "indexed": false,
          "internalType": "string",
          "name": "tanggal_pengiriman",
          "type": "string"
        },
        {
          "indexed": false,
          "internalType": "bool",
          "name": "status_kehalalan",
          "type": "bool"
        },
        {
          "indexed": false,
          "internalType": "uint256",
          "name": "date",
          "type": "uint256"
        }
      ],
      "name": "TraceSupplier",
      "type": "event"
    },
    {
      "inputs": [],
      "name": "DEFAULT_ADMIN_ROLE",
      "outputs": [
        {
          "internalType": "bytes32",
          "name": "",
          "type": "bytes32"
        }
      ],
      "stateMutability": "view",
      "type": "function"
    },
    {
      "inputs": [],
      "name": "DISTRIBUTOR",
      "outputs": [
        {
          "internalType": "bytes32",
          "name": "",
          "type": "bytes32"
        }
      ],
      "stateMutability": "view",
      "type": "function"
    },
    {
      "inputs": [],
      "name": "RPH",
      "outputs": [
        {
          "internalType": "bytes32",
          "name": "",
          "type": "bytes32"
        }
      ],
      "stateMutability": "view",
      "type": "function"
    },
    {
      "inputs": [],
      "name": "RUMAH_MAKAN",
      "outputs": [
        {
          "internalType": "bytes32",
          "name": "",
          "type": "bytes32"
        }
      ],
      "stateMutability": "view",
      "type": "function"
    },
    {
      "inputs": [],
      "name": "SUPPLIER",
      "outputs": [
        {
          "internalType": "bytes32",
          "name": "",
          "type": "bytes32"
        }
      ],
      "stateMutability": "view",
      "type": "function"
    },
    {
      "inputs": [
        {
          "internalType": "string",
          "name": "_ID_Makanan",
          "type": "string"
        }
      ],
      "name": "getRelatedData",
      "outputs": [
        {
          "components": [
            {
              "internalType": "string",
              "name": "ID",
              "type": "string"
            },
            {
              "internalType": "string",
              "name": "ID_ProdukDistributor",
              "type": "string"
            },
            {
              "internalType": "address",
              "name": "Akun_RumahMakan",
              "type": "address"
            },
            {
              "internalType": "string",
              "name": "nama",
              "type": "string"
            },
            {
              "internalType": "string",
              "name": "tanggal_pengolahan",
              "type": "string"
            },
            {
              "internalType": "bool",
              "name": "status_kehalalan",
              "type": "bool"
            },
            {
              "internalType": "uint256",
              "name": "date",
              "type": "uint256"
            }
          ],
          "internalType": "struct Trace.Makanan",
          "name": "",
          "type": "tuple"
        },
        {
          "components": [
            {
              "internalType": "string",
              "name": "ID",
              "type": "string"
            },
            {
              "internalType": "string",
              "name": "ID_ProdukRPH",
              "type": "string"
            },
            {
              "internalType": "address",
              "name": "Akun_Distributor",
              "type": "address"
            },
            {
              "internalType": "string",
              "name": "tanggal_penyimpanan",
              "type": "string"
            },
            {
              "internalType": "string",
              "name": "tanggal_pengiriman",
              "type": "string"
            },
            {
              "internalType": "string",
              "name": "tanggal_penerimaan",
              "type": "string"
            },
            {
              "internalType": "bool",
              "name": "status_kehalalan",
              "type": "bool"
            },
            {
              "internalType": "uint256",
              "name": "date",
              "type": "uint256"
            }
          ],
          "internalType": "struct Trace.ProdukDistributor",
          "name": "",
          "type": "tuple"
        },
        {
          "components": [
            {
              "internalType": "string",
              "name": "ID",
              "type": "string"
            },
            {
              "internalType": "string",
              "name": "ID_Pemotongan",
              "type": "string"
            },
            {
              "internalType": "address",
              "name": "Akun_RPH",
              "type": "address"
            },
            {
              "internalType": "bool",
              "name": "status_kehalalan",
              "type": "bool"
            },
            {
              "internalType": "uint256",
              "name": "date",
              "type": "uint256"
            }
          ],
          "internalType": "struct Trace.ProdukRPH",
          "name": "",
          "type": "tuple"
        },
        {
          "components": [
            {
              "internalType": "string",
              "name": "ID",
              "type": "string"
            },
            {
              "internalType": "string",
              "name": "ID_Supplier",
              "type": "string"
            },
            {
              "internalType": "address",
              "name": "Akun_RPH",
              "type": "address"
            },
            {
              "internalType": "string",
              "name": "tanggal_pemotongan",
              "type": "string"
            },
            {
              "internalType": "bool",
              "name": "status_kehalalan",
              "type": "bool"
            },
            {
              "internalType": "uint256",
              "name": "date",
              "type": "uint256"
            }
          ],
          "internalType": "struct Trace.Pemotongan",
          "name": "",
          "type": "tuple"
        },
        {
          "components": [
            {
              "internalType": "string",
              "name": "ID",
              "type": "string"
            },
            {
              "internalType": "address",
              "name": "Akun_Supplier",
              "type": "address"
            },
            {
              "internalType": "string",
              "name": "jenis_kelamin",
              "type": "string"
            },
            {
              "internalType": "string",
              "name": "berat_sapi",
              "type": "string"
            },
            {
              "internalType": "string",
              "name": "tanggal_pengiriman",
              "type": "string"
            },
            {
              "internalType": "bool",
              "name": "status_kehalalan",
              "type": "bool"
            },
            {
              "internalType": "uint256",
              "name": "date",
              "type": "uint256"
            }
          ],
          "internalType": "struct Trace.Supplier",
          "name": "",
          "type": "tuple"
        }
      ],
      "stateMutability": "view",
      "type": "function"
    },
    {
      "inputs": [
        {
          "internalType": "bytes32",
          "name": "role",
          "type": "bytes32"
        }
      ],
      "name": "getRoleAdmin",
      "outputs": [
        {
          "internalType": "bytes32",
          "name": "",
          "type": "bytes32"
        }
      ],
      "stateMutability": "view",
      "type": "function"
    },
    {
      "inputs": [
        {
          "internalType": "bytes32",
          "name": "role",
          "type": "bytes32"
        },
        {
          "internalType": "address",
          "name": "account",
          "type": "address"
        }
      ],
      "name": "grantRole",
      "outputs": [],
      "stateMutability": "nonpayable",
      "type": "function"
    },
    {
      "inputs": [
        {
          "internalType": "bytes32",
          "name": "role",
          "type": "bytes32"
        },
        {
          "internalType": "address",
          "name": "account",
          "type": "address"
        }
      ],
      "name": "hasRole",
      "outputs": [
        {
          "internalType": "bool",
          "name": "",
          "type": "bool"
        }
      ],
      "stateMutability": "view",
      "type": "function"
    },
    {
      "inputs": [
        {
          "internalType": "string",
          "name": "_ID_ProdukDistributor",
          "type": "string"
        },
        {
          "internalType": "string",
          "name": "_nama",
          "type": "string"
        },
        {
          "internalType": "string",
          "name": "_tanggal_pengolahan",
          "type": "string"
        },
        {
          "internalType": "bool",
          "name": "_status_kehalalan",
          "type": "bool"
        }
      ],
      "name": "inputMakanan",
      "outputs": [
        {
          "internalType": "string",
          "name": "",
          "type": "string"
        }
      ],
      "stateMutability": "nonpayable",
      "type": "function"
    },
    {
      "inputs": [
        {
          "internalType": "string",
          "name": "_ID_Supplier",
          "type": "string"
        },
        {
          "internalType": "string",
          "name": "_tanggal_pemotongan",
          "type": "string"
        },
        {
          "internalType": "bool",
          "name": "_status_kehalalan",
          "type": "bool"
        }
      ],
      "name": "inputPemotongan",
      "outputs": [],
      "stateMutability": "nonpayable",
      "type": "function"
    },
    {
      "inputs": [
        {
          "internalType": "string",
          "name": "_ID_ProdukRPH",
          "type": "string"
        },
        {
          "internalType": "string",
          "name": "_tanggal_penyimpanan",
          "type": "string"
        },
        {
          "internalType": "string",
          "name": "_tanggal_pengiriman",
          "type": "string"
        },
        {
          "internalType": "string",
          "name": "_tanggal_penerimaan",
          "type": "string"
        },
        {
          "internalType": "bool",
          "name": "_status_kehalalan",
          "type": "bool"
        }
      ],
      "name": "inputProdukDistributor",
      "outputs": [],
      "stateMutability": "nonpayable",
      "type": "function"
    },
    {
      "inputs": [
        {
          "internalType": "string",
          "name": "_ID_Pemotongan",
          "type": "string"
        },
        {
          "internalType": "bool",
          "name": "_status_kehalalan",
          "type": "bool"
        }
      ],
      "name": "inputProdukRPH",
      "outputs": [],
      "stateMutability": "nonpayable",
      "type": "function"
    },
    {
      "inputs": [
        {
          "internalType": "string",
          "name": "_jenis_kelamin",
          "type": "string"
        },
        {
          "internalType": "string",
          "name": "_berat_sapi",
          "type": "string"
        },
        {
          "internalType": "string",
          "name": "_tanggal_pengiriman",
          "type": "string"
        },
        {
          "internalType": "bool",
          "name": "_status_kehalalan",
          "type": "bool"
        }
      ],
      "name": "inputSupplier",
      "outputs": [],
      "stateMutability": "nonpayable",
      "type": "function"
    },
    {
      "inputs": [
        {
          "internalType": "string",
          "name": "",
          "type": "string"
        }
      ],
      "name": "makanan",
      "outputs": [
        {
          "internalType": "string",
          "name": "ID",
          "type": "string"
        },
        {
          "internalType": "string",
          "name": "ID_ProdukDistributor",
          "type": "string"
        },
        {
          "internalType": "address",
          "name": "Akun_RumahMakan",
          "type": "address"
        },
        {
          "internalType": "string",
          "name": "nama",
          "type": "string"
        },
        {
          "internalType": "string",
          "name": "tanggal_pengolahan",
          "type": "string"
        },
        {
          "internalType": "bool",
          "name": "status_kehalalan",
          "type": "bool"
        },
        {
          "internalType": "uint256",
          "name": "date",
          "type": "uint256"
        }
      ],
      "stateMutability": "view",
      "type": "function"
    },
    {
      "inputs": [
        {
          "internalType": "string",
          "name": "",
          "type": "string"
        }
      ],
      "name": "pemotongan",
      "outputs": [
        {
          "internalType": "string",
          "name": "ID",
          "type": "string"
        },
        {
          "internalType": "string",
          "name": "ID_Supplier",
          "type": "string"
        },
        {
          "internalType": "address",
          "name": "Akun_RPH",
          "type": "address"
        },
        {
          "internalType": "string",
          "name": "tanggal_pemotongan",
          "type": "string"
        },
        {
          "internalType": "bool",
          "name": "status_kehalalan",
          "type": "bool"
        },
        {
          "internalType": "uint256",
          "name": "date",
          "type": "uint256"
        }
      ],
      "stateMutability": "view",
      "type": "function"
    },
    {
      "inputs": [
        {
          "internalType": "string",
          "name": "",
          "type": "string"
        }
      ],
      "name": "produkDistributor",
      "outputs": [
        {
          "internalType": "string",
          "name": "ID",
          "type": "string"
        },
        {
          "internalType": "string",
          "name": "ID_ProdukRPH",
          "type": "string"
        },
        {
          "internalType": "address",
          "name": "Akun_Distributor",
          "type": "address"
        },
        {
          "internalType": "string",
          "name": "tanggal_penyimpanan",
          "type": "string"
        },
        {
          "internalType": "string",
          "name": "tanggal_pengiriman",
          "type": "string"
        },
        {
          "internalType": "string",
          "name": "tanggal_penerimaan",
          "type": "string"
        },
        {
          "internalType": "bool",
          "name": "status_kehalalan",
          "type": "bool"
        },
        {
          "internalType": "uint256",
          "name": "date",
          "type": "uint256"
        }
      ],
      "stateMutability": "view",
      "type": "function"
    },
    {
      "inputs": [
        {
          "internalType": "string",
          "name": "",
          "type": "string"
        }
      ],
      "name": "produkRPH",
      "outputs": [
        {
          "internalType": "string",
          "name": "ID",
          "type": "string"
        },
        {
          "internalType": "string",
          "name": "ID_Pemotongan",
          "type": "string"
        },
        {
          "internalType": "address",
          "name": "Akun_RPH",
          "type": "address"
        },
        {
          "internalType": "bool",
          "name": "status_kehalalan",
          "type": "bool"
        },
        {
          "internalType": "uint256",
          "name": "date",
          "type": "uint256"
        }
      ],
      "stateMutability": "view",
      "type": "function"
    },
    {
      "inputs": [
        {
          "internalType": "bytes32",
          "name": "role",
          "type": "bytes32"
        },
        {
          "internalType": "address",
          "name": "account",
          "type": "address"
        }
      ],
      "name": "renounceRole",
      "outputs": [],
      "stateMutability": "nonpayable",
      "type": "function"
    },
    {
      "inputs": [
        {
          "internalType": "bytes32",
          "name": "role",
          "type": "bytes32"
        },
        {
          "internalType": "address",
          "name": "account",
          "type": "address"
        }
      ],
      "name": "revokeRole",
      "outputs": [],
      "stateMutability": "nonpayable",
      "type": "function"
    },
    {
      "inputs": [
        {
          "internalType": "string",
          "name": "",
          "type": "string"
        }
      ],
      "name": "supplier",
      "outputs": [
        {
          "internalType": "string",
          "name": "ID",
          "type": "string"
        },
        {
          "internalType": "address",
          "name": "Akun_Supplier",
          "type": "address"
        },
        {
          "internalType": "string",
          "name": "jenis_kelamin",
          "type": "string"
        },
        {
          "internalType": "string",
          "name": "berat_sapi",
          "type": "string"
        },
        {
          "internalType": "string",
          "name": "tanggal_pengiriman",
          "type": "string"
        },
        {
          "internalType": "bool",
          "name": "status_kehalalan",
          "type": "bool"
        },
        {
          "internalType": "uint256",
          "name": "date",
          "type": "uint256"
        }
      ],
      "stateMutability": "view",
      "type": "function"
    },
    {
      "inputs": [
        {
          "internalType": "bytes4",
          "name": "interfaceId",
          "type": "bytes4"
        }
      ],
      "name": "supportsInterface",
      "outputs": [
        {
          "internalType": "bool",
          "name": "",
          "type": "bool"
        }
      ],
      "stateMutability": "view",
      "type": "function"
    }
  ],
  "bytecode": "0x60806040523480156200001157600080fd5b5060405162004290380380620042908339810160408190526200003491620001c8565b62000041600033620000fb565b6200006d7ff4649f2a97b4905837fc846dcfefa3e2561c3a9744fc53688b4d0bcb33e49f9885620000fb565b620000997f58bd82b5be4fe0ab9451464d252f5b165e247e7ccc04cb7f3c29168b9be6088b84620000fb565b620000c57f85faced7bde13e1a7dad704b895f006e704f207617d68166b31ba2d79624862d83620000fb565b620000f17fa195f952fbc977b41b0dac4f26325301606d2789b6e6e1f593ea183a62e7a03382620000fb565b5050505062000225565b6200010782826200010b565b5050565b6000828152602081815260408083206001600160a01b038516845290915290205460ff1662000107576000828152602081815260408083206001600160a01b03851684529091529020805460ff19166001179055620001673390565b6001600160a01b0316816001600160a01b0316837f2f8788117e7eff1d82e926ec794901d17c78024a50270940304540a733656f0d60405160405180910390a45050565b80516001600160a01b0381168114620001c357600080fd5b919050565b60008060008060808587031215620001df57600080fd5b620001ea85620001ab565b9350620001fa60208601620001ab565b92506200020a60408601620001ab565b91506200021a60608601620001ab565b905092959194509250565b61405b80620002356000396000f3fe608060405234801561001057600080fd5b50600436106101825760003560e01c80635783d5a7116100d8578063c4f646f71161008c578063e64c4ef211610066578063e64c4ef2146103ee578063e926eb9614610401578063f813b6f01461042857600080fd5b8063c4f646f714610392578063d547741f146103b6578063deac2e05146103c957600080fd5b80639c26149f116100bd5780639c26149f14610343578063a217fddf1461036a578063b38934fc1461037257600080fd5b80635783d5a7146102db57806391d14854146102ff57600080fd5b80632f2ff15d1161013a5780634bb4a00f116101145780634bb4a00f1461028e5780634ce18e4a146102a15780634d2454c7146102c857600080fd5b80632f2ff15d1461024257806336568abe146102555780633c009cd71461026857600080fd5b80630a200f691161016b5780630a200f69146101e457806316f13e751461020a578063248a9ca31461021f57600080fd5b806301ffc9a71461018757806308919dc9146101af575b600080fd5b61019a61019536600461313d565b61044f565b60405190151581526020015b60405180910390f35b6101d67f58bd82b5be4fe0ab9451464d252f5b165e247e7ccc04cb7f3c29168b9be6088b81565b6040519081526020016101a6565b6101f76101f236600461323b565b6104e8565b6040516101a697969594939291906132c8565b61021d61021836600461335d565b61076d565b005b6101d661022d3660046133ab565b60009081526020819052604090206001015490565b61021d6102503660046133c4565b6109f6565b61021d6102633660046133c4565b610a20565b61027b61027636600461323b565b610ab9565b6040516101a6979695949392919061340d565b61021d61029c366004613462565b610c1d565b6101d67fa195f952fbc977b41b0dac4f26325301606d2789b6e6e1f593ea183a62e7a03381565b61021d6102d63660046134d6565b610eb6565b6102ee6102e936600461323b565b6110cd565b6040516101a69594939291906137e1565b61019a61030d3660046133c4565b60009182526020828152604080842073ffffffffffffffffffffffffffffffffffffffff93909316845291905290205460ff1690565b6101d67f85faced7bde13e1a7dad704b895f006e704f207617d68166b31ba2d79624862d81565b6101d6600081565b6103856103803660046134d6565b611f1c565b6040516101a69190613914565b6103a56103a036600461323b565b6121d8565b6040516101a6959493929190613927565b61021d6103c43660046133c4565b61234f565b6103dc6103d736600461323b565b612374565b6040516101a696959493929190613980565b61021d6103fc3660046139eb565b61256b565b6101d67ff4649f2a97b4905837fc846dcfefa3e2561c3a9744fc53688b4d0bcb33e49f9881565b61043b61043636600461323b565b612843565b6040516101a6989796959493929190613aa9565b60007fffffffff0000000000000000000000000000000000000000000000000000000082167f7965db0b0000000000000000000000000000000000000000000000000000000014806104e257507f01ffc9a7000000000000000000000000000000000000000000000000000000007fffffffff000000000000000000000000000000000000000000000000000000008316145b92915050565b805160208183018101805160068252928201919093012091528054819061050e90613b41565b80601f016020809104026020016040519081016040528092919081815260200182805461053a90613b41565b80156105875780601f1061055c57610100808354040283529160200191610587565b820191906000526020600020905b81548152906001019060200180831161056a57829003601f168201915b5050506001840154600285018054949573ffffffffffffffffffffffffffffffffffffffff9092169491935091506105be90613b41565b80601f01602080910402602001604051908101604052809291908181526020018280546105ea90613b41565b80156106375780601f1061060c57610100808354040283529160200191610637565b820191906000526020600020905b81548152906001019060200180831161061a57829003601f168201915b50505050509080600301805461064c90613b41565b80601f016020809104026020016040519081016040528092919081815260200182805461067890613b41565b80156106c55780601f1061069a576101008083540402835291602001916106c5565b820191906000526020600020905b8154815290600101906020018083116106a857829003601f168201915b5050505050908060040180546106da90613b41565b80601f016020809104026020016040519081016040528092919081815260200182805461070690613b41565b80156107535780601f1061072857610100808354040283529160200191610753565b820191906000526020600020905b81548152906001019060200180831161073657829003601f168201915b505050506005830154600690930154919260ff1691905087565b7f58bd82b5be4fe0ab9451464d252f5b165e247e7ccc04cb7f3c29168b9be6088b61079781612b56565b60408051600081526020810191829052518120906007906107b9908690613b94565b908152604051602091819003820181206107d592909101613bb0565b604051602081830303815290604052805190602001200361083d5760405162461bcd60e51b815260206004820152601f60248201527f446174612050656d6f746f6e67616e20546964616b205465726461667461720060448201526064015b60405180910390fd5b60018215151461088f5760405162461bcd60e51b815260206004820152601960248201527f5374617475732050726f64756b2068617275732068616c616c000000000000006044820152606401610834565b6003805490600061089f83613c55565b919050555060006108b1600354612b63565b6040516020016108c19190613c8d565b60408051601f1981840301815260a083018252808352602083018790523383830152600160608401524260808401529051909250600890610903908490613b94565b908152604051908190036020019020815181906109209082613d20565b50602082015160018201906109359082613d20565b506040828101516002830180546060860151151574010000000000000000000000000000000000000000027fffffffffffffffffffffff00000000000000000000000000000000000000000090911673ffffffffffffffffffffffffffffffffffffffff90931692909217919091179055608090920151600390910155517f305f4a5d684fc34fab0fa76edeae83280fdcf1e5410a5e921a6ad748e616f46e906109e89083908790339088904290613927565b60405180910390a150505050565b600082815260208190526040902060010154610a1181612b56565b610a1b8383612c21565b505050565b73ffffffffffffffffffffffffffffffffffffffff81163314610aab5760405162461bcd60e51b815260206004820152602f60248201527f416363657373436f6e74726f6c3a2063616e206f6e6c792072656e6f756e636560448201527f20726f6c657320666f722073656c6600000000000000000000000000000000006064820152608401610834565b610ab58282612cf3565b5050565b8051602081830181018051600a82529282019190930120915280548190610adf90613b41565b80601f0160208091040260200160405190810160405280929190818152602001828054610b0b90613b41565b8015610b585780601f10610b2d57610100808354040283529160200191610b58565b820191906000526020600020905b815481529060010190602001808311610b3b57829003601f168201915b505050505090806001018054610b6d90613b41565b80601f0160208091040260200160405190810160405280929190818152602001828054610b9990613b41565b8015610be65780601f10610bbb57610100808354040283529160200191610be6565b820191906000526020600020905b815481529060010190602001808311610bc957829003601f168201915b5050506002840154600385018054949573ffffffffffffffffffffffffffffffffffffffff90921694919350915061064c90613b41565b7f58bd82b5be4fe0ab9451464d252f5b165e247e7ccc04cb7f3c29168b9be6088b610c4781612b56565b6040805160008152602081019182905251812090600690610c69908790613b94565b90815260405160209181900382018120610c8592909101613bb0565b6040516020818303038152906040528051906020012003610ce85760405162461bcd60e51b815260206004820152601d60248201527f4461746120537570706c69657220546964616b205465726461667461720000006044820152606401610834565b600182151514610d3a5760405162461bcd60e51b815260206004820152601960248201527f5374617475732050726f64756b2068617275732068616c616c000000000000006044820152606401610834565b60028054906000610d4a83613c55565b91905055506000610d5c600254612b63565b604051602001610d6c9190613e1c565b60408051601f1981840301815260c0830182528083526020830188905233838301526060830187905285151560808401524260a08401529051909250600790610db6908490613b94565b90815260405190819003602001902081518190610dd39082613d20565b5060208201516001820190610de89082613d20565b5060408201516002820180547fffffffffffffffffffffffff00000000000000000000000000000000000000001673ffffffffffffffffffffffffffffffffffffffff90921691909117905560608201516003820190610e489082613d20565b50608082015160048201805460ff191691151591909117905560a0909101516005909101556040517f47f19c6ed542ffbc6e9d3a973d0bf3d454cd4685a505b30c608abcb951fa5dd190610ea790839088903390899089904290613980565b60405180910390a15050505050565b7ff4649f2a97b4905837fc846dcfefa3e2561c3a9744fc53688b4d0bcb33e49f98610ee081612b56565b600182151514610f325760405162461bcd60e51b815260206004820152601960248201527f5374617475732050726f64756b2068617275732068616c616c000000000000006044820152606401610834565b60018054906000610f4283613c55565b91905055506000610f54600154612b63565b604051602001610f649190613e54565b60408051601f1981840301815260e083018252808352336020840152828201899052606083018890526080830187905285151560a08401524260c08401529051909250600690610fb5908490613b94565b90815260405190819003602001902081518190610fd29082613d20565b5060208201516001820180547fffffffffffffffffffffffff00000000000000000000000000000000000000001673ffffffffffffffffffffffffffffffffffffffff909216919091179055604082015160028201906110329082613d20565b50606082015160038201906110479082613d20565b506080820151600482019061105c9082613d20565b5060a082015160058201805460ff191691151591909117905560c0909101516006909101556040517f5da419747e530a2d844a7b7945e29c8a0e122943a7d19b82b66dce24d54f59df906110bd90839033908a908a908a908a9042906132c8565b60405180910390a1505050505050565b6111256040518060e001604052806060815260200160608152602001600073ffffffffffffffffffffffffffffffffffffffff1681526020016060815260200160608152602001600015158152602001600081525090565b6111856040518061010001604052806060815260200160608152602001600073ffffffffffffffffffffffffffffffffffffffff168152602001606081526020016060815260200160608152602001600015158152602001600081525090565b6111cf6040518060a001604052806060815260200160608152602001600073ffffffffffffffffffffffffffffffffffffffff168152602001600015158152602001600081525090565b6112206040518060c001604052806060815260200160608152602001600073ffffffffffffffffffffffffffffffffffffffff16815260200160608152602001600015158152602001600081525090565b6112786040518060e0016040528060608152602001600073ffffffffffffffffffffffffffffffffffffffff168152602001606081526020016060815260200160608152602001600015158152602001600081525090565b6000600a8760405161128a9190613b94565b90815260200160405180910390206040518060e00160405290816000820180546112b390613b41565b80601f01602080910402602001604051908101604052809291908181526020018280546112df90613b41565b801561132c5780601f106113015761010080835404028352916020019161132c565b820191906000526020600020905b81548152906001019060200180831161130f57829003601f168201915b5050505050815260200160018201805461134590613b41565b80601f016020809104026020016040519081016040528092919081815260200182805461137190613b41565b80156113be5780601f10611393576101008083540402835291602001916113be565b820191906000526020600020905b8154815290600101906020018083116113a157829003601f168201915b5050509183525050600282015473ffffffffffffffffffffffffffffffffffffffff1660208201526003820180546040909201916113fb90613b41565b80601f016020809104026020016040519081016040528092919081815260200182805461142790613b41565b80156114745780601f1061144957610100808354040283529160200191611474565b820191906000526020600020905b81548152906001019060200180831161145757829003601f168201915b5050505050815260200160048201805461148d90613b41565b80601f01602080910402602001604051908101604052809291908181526020018280546114b990613b41565b80156115065780601f106114db57610100808354040283529160200191611506565b820191906000526020600020905b8154815290600101906020018083116114e957829003601f168201915b5050509183525050600582015460ff16151560208083019190915260069092015460409182015290820151905191925060009160099161154591613b94565b90815260200160405180910390206040518061010001604052908160008201805461156f90613b41565b80601f016020809104026020016040519081016040528092919081815260200182805461159b90613b41565b80156115e85780601f106115bd576101008083540402835291602001916115e8565b820191906000526020600020905b8154815290600101906020018083116115cb57829003601f168201915b5050505050815260200160018201805461160190613b41565b80601f016020809104026020016040519081016040528092919081815260200182805461162d90613b41565b801561167a5780601f1061164f5761010080835404028352916020019161167a565b820191906000526020600020905b81548152906001019060200180831161165d57829003601f168201915b5050509183525050600282015473ffffffffffffffffffffffffffffffffffffffff1660208201526003820180546040909201916116b790613b41565b80601f01602080910402602001604051908101604052809291908181526020018280546116e390613b41565b80156117305780601f1061170557610100808354040283529160200191611730565b820191906000526020600020905b81548152906001019060200180831161171357829003601f168201915b5050505050815260200160048201805461174990613b41565b80601f016020809104026020016040519081016040528092919081815260200182805461177590613b41565b80156117c25780601f10611797576101008083540402835291602001916117c2565b820191906000526020600020905b8154815290600101906020018083116117a557829003601f168201915b505050505081526020016005820180546117db90613b41565b80601f016020809104026020016040519081016040528092919081815260200182805461180790613b41565b80156118545780601f1061182957610100808354040283529160200191611854565b820191906000526020600020905b81548152906001019060200180831161183757829003601f168201915b5050509183525050600682015460ff16151560208083019190915260079092015460409182015290820151905191925060009160089161189391613b94565b90815260200160405180910390206040518060a00160405290816000820180546118bc90613b41565b80601f01602080910402602001604051908101604052809291908181526020018280546118e890613b41565b80156119355780601f1061190a57610100808354040283529160200191611935565b820191906000526020600020905b81548152906001019060200180831161191857829003601f168201915b5050505050815260200160018201805461194e90613b41565b80601f016020809104026020016040519081016040528092919081815260200182805461197a90613b41565b80156119c75780601f1061199c576101008083540402835291602001916119c7565b820191906000526020600020905b8154815290600101906020018083116119aa57829003601f168201915b5050509183525050600282015473ffffffffffffffffffffffffffffffffffffffff81166020808401919091527401000000000000000000000000000000000000000090910460ff1615156040808401919091526003909301546060909201919091528201519051919250600091600791611a4191613b94565b90815260200160405180910390206040518060c0016040529081600082018054611a6a90613b41565b80601f0160208091040260200160405190810160405280929190818152602001828054611a9690613b41565b8015611ae35780601f10611ab857610100808354040283529160200191611ae3565b820191906000526020600020905b815481529060010190602001808311611ac657829003601f168201915b50505050508152602001600182018054611afc90613b41565b80601f0160208091040260200160405190810160405280929190818152602001828054611b2890613b41565b8015611b755780601f10611b4a57610100808354040283529160200191611b75565b820191906000526020600020905b815481529060010190602001808311611b5857829003601f168201915b5050509183525050600282015473ffffffffffffffffffffffffffffffffffffffff166020820152600382018054604090920191611bb290613b41565b80601f0160208091040260200160405190810160405280929190818152602001828054611bde90613b41565b8015611c2b5780601f10611c0057610100808354040283529160200191611c2b565b820191906000526020600020905b815481529060010190602001808311611c0e57829003601f168201915b5050509183525050600482015460ff161515602080830191909152600590920154604091820152908201519051919250600091600691611c6a91613b94565b90815260200160405180910390206040518060e0016040529081600082018054611c9390613b41565b80601f0160208091040260200160405190810160405280929190818152602001828054611cbf90613b41565b8015611d0c5780601f10611ce157610100808354040283529160200191611d0c565b820191906000526020600020905b815481529060010190602001808311611cef57829003601f168201915b5050509183525050600182015473ffffffffffffffffffffffffffffffffffffffff166020820152600282018054604090920191611d4990613b41565b80601f0160208091040260200160405190810160405280929190818152602001828054611d7590613b41565b8015611dc25780601f10611d9757610100808354040283529160200191611dc2565b820191906000526020600020905b815481529060010190602001808311611da557829003601f168201915b50505050508152602001600382018054611ddb90613b41565b80601f0160208091040260200160405190810160405280929190818152602001828054611e0790613b41565b8015611e545780601f10611e2957610100808354040283529160200191611e54565b820191906000526020600020905b815481529060010190602001808311611e3757829003601f168201915b50505050508152602001600482018054611e6d90613b41565b80601f0160208091040260200160405190810160405280929190818152602001828054611e9990613b41565b8015611ee65780601f10611ebb57610100808354040283529160200191611ee6565b820191906000526020600020905b815481529060010190602001808311611ec957829003601f168201915b5050509183525050600582015460ff1615156020820152600690910154604090910152949b939a50919850965091945092505050565b60607fa195f952fbc977b41b0dac4f26325301606d2789b6e6e1f593ea183a62e7a033611f4881612b56565b6040805160008152602081019182905251812090600990611f6a908990613b94565b90815260405160209181900382018120611f8692909101613bb0565b6040516020818303038152906040528051906020012003611fe95760405162461bcd60e51b815260206004820152601f60248201527f446174612050726f64756b2052504820546964616b20546572646166746172006044820152606401610834565b60018315151461203b5760405162461bcd60e51b815260206004820152601960248201527f5374617475732050726f64756b2068617275732068616c616c000000000000006044820152606401610834565b6005805490600061204b83613c55565b9190505550600061205d600554612b63565b60405160200161206d9190613e99565b60408051601f1981840301815260e083018252808352602083018a90523383830152606083018990526080830188905286151560a08401524260c08401529051909250600a906120be908490613b94565b908152604051908190036020019020815181906120db9082613d20565b50602082015160018201906120f09082613d20565b5060408201516002820180547fffffffffffffffffffffffff00000000000000000000000000000000000000001673ffffffffffffffffffffffffffffffffffffffff909216919091179055606082015160038201906121509082613d20565b50608082015160048201906121659082613d20565b5060a082015160058201805460ff191691151591909117905560c0909101516006909101556040517fa0238f7ebdad108fecaf0e455720a289873d718ab34c00f835c6be2f7f053f2f906121c69083908a9033908b908b908b90429061340d565b60405180910390a19695505050505050565b80516020818301810180516008825292820191909301209152805481906121fe90613b41565b80601f016020809104026020016040519081016040528092919081815260200182805461222a90613b41565b80156122775780601f1061224c57610100808354040283529160200191612277565b820191906000526020600020905b81548152906001019060200180831161225a57829003601f168201915b50505050509080600101805461228c90613b41565b80601f01602080910402602001604051908101604052809291908181526020018280546122b890613b41565b80156123055780601f106122da57610100808354040283529160200191612305565b820191906000526020600020905b8154815290600101906020018083116122e857829003601f168201915b505050506002830154600390930154919273ffffffffffffffffffffffffffffffffffffffff8116927401000000000000000000000000000000000000000090910460ff16915085565b60008281526020819052604090206001015461236a81612b56565b610a1b8383612cf3565b805160208183018101805160078252928201919093012091528054819061239a90613b41565b80601f01602080910402602001604051908101604052809291908181526020018280546123c690613b41565b80156124135780601f106123e857610100808354040283529160200191612413565b820191906000526020600020905b8154815290600101906020018083116123f657829003601f168201915b50505050509080600101805461242890613b41565b80601f016020809104026020016040519081016040528092919081815260200182805461245490613b41565b80156124a15780601f10612476576101008083540402835291602001916124a1565b820191906000526020600020905b81548152906001019060200180831161248457829003601f168201915b5050506002840154600385018054949573ffffffffffffffffffffffffffffffffffffffff9092169491935091506124d890613b41565b80601f016020809104026020016040519081016040528092919081815260200182805461250490613b41565b80156125515780601f1061252657610100808354040283529160200191612551565b820191906000526020600020905b81548152906001019060200180831161253457829003601f168201915b505050506004830154600590930154919260ff1691905086565b7f85faced7bde13e1a7dad704b895f006e704f207617d68166b31ba2d79624862d61259581612b56565b60408051600081526020810191829052518120906008906125b7908990613b94565b908152604051602091819003820181206125d392909101613bb0565b60405160208183030381529060405280519060200120036126365760405162461bcd60e51b815260206004820152601f60248201527f446174612050726f64756b2052504820546964616b20546572646166746172006044820152606401610834565b6001821515146126885760405162461bcd60e51b815260206004820152601960248201527f5374617475732050726f64756b2068617275732068616c616c000000000000006044820152606401610834565b6004805490600061269883613c55565b919050555060006126aa600454612b63565b6040516020016126ba9190613ede565b60408051601f1981840301815261010083018252808352602083018a90523383830152606083018990526080830188905260a0830187905285151560c08401524260e08401529051909250600990612713908490613b94565b908152604051908190036020019020815181906127309082613d20565b50602082015160018201906127459082613d20565b5060408201516002820180547fffffffffffffffffffffffff00000000000000000000000000000000000000001673ffffffffffffffffffffffffffffffffffffffff909216919091179055606082015160038201906127a59082613d20565b50608082015160048201906127ba9082613d20565b5060a082015160058201906127cf9082613d20565b5060c082015160068201805460ff191691151591909117905560e0909101516007909101556040517fca5e87f08d1fb65ef38f4b64816370124acbc059d2e0e81c414baa4e5bfa0c52906128329083908a9033908b908b908b908b904290613aa9565b60405180910390a150505050505050565b805160208183018101805160098252928201919093012091528054819061286990613b41565b80601f016020809104026020016040519081016040528092919081815260200182805461289590613b41565b80156128e25780601f106128b7576101008083540402835291602001916128e2565b820191906000526020600020905b8154815290600101906020018083116128c557829003601f168201915b5050505050908060010180546128f790613b41565b80601f016020809104026020016040519081016040528092919081815260200182805461292390613b41565b80156129705780601f1061294557610100808354040283529160200191612970565b820191906000526020600020905b81548152906001019060200180831161295357829003601f168201915b5050506002840154600385018054949573ffffffffffffffffffffffffffffffffffffffff9092169491935091506129a790613b41565b80601f01602080910402602001604051908101604052809291908181526020018280546129d390613b41565b8015612a205780601f106129f557610100808354040283529160200191612a20565b820191906000526020600020905b815481529060010190602001808311612a0357829003601f168201915b505050505090806004018054612a3590613b41565b80601f0160208091040260200160405190810160405280929190818152602001828054612a6190613b41565b8015612aae5780601f10612a8357610100808354040283529160200191612aae565b820191906000526020600020905b815481529060010190602001808311612a9157829003601f168201915b505050505090806005018054612ac390613b41565b80601f0160208091040260200160405190810160405280929190818152602001828054612aef90613b41565b8015612b3c5780601f10612b1157610100808354040283529160200191612b3c565b820191906000526020600020905b815481529060010190602001808311612b1f57829003601f168201915b505050506006830154600790930154919260ff1691905088565b612b608133612d8c565b50565b60606000612b7083612e0c565b600101905060008167ffffffffffffffff811115612b9057612b9061317f565b6040519080825280601f01601f191660200182016040528015612bba576020820181803683370190505b5090508181016020015b7fffffffffffffffffffffffffffffffffffffffffffffffffffffffffffffffff017f3031323334353637383961626364656600000000000000000000000000000000600a86061a8153600a8504945084612bc457509392505050565b60008281526020818152604080832073ffffffffffffffffffffffffffffffffffffffff8516845290915290205460ff16610ab55760008281526020818152604080832073ffffffffffffffffffffffffffffffffffffffff851684529091529020805460ff19166001179055612c953390565b73ffffffffffffffffffffffffffffffffffffffff168173ffffffffffffffffffffffffffffffffffffffff16837f2f8788117e7eff1d82e926ec794901d17c78024a50270940304540a733656f0d60405160405180910390a45050565b60008281526020818152604080832073ffffffffffffffffffffffffffffffffffffffff8516845290915290205460ff1615610ab55760008281526020818152604080832073ffffffffffffffffffffffffffffffffffffffff85168085529252808320805460ff1916905551339285917ff6391f5c32d9c69d2a47ea670b442974b53935d1edc7fd64eb21e047a839171b9190a45050565b60008281526020818152604080832073ffffffffffffffffffffffffffffffffffffffff8516845290915290205460ff16610ab557612dca81612eee565b612dd5836020612f0d565b604051602001612de6929190613f16565b60408051601f198184030181529082905262461bcd60e51b825261083491600401613914565b6000807a184f03e93ff9f4daa797ed6e38ed64bf6a1f0100000000000000008310612e55577a184f03e93ff9f4daa797ed6e38ed64bf6a1f010000000000000000830492506040015b6d04ee2d6d415b85acef81000000008310612e81576d04ee2d6d415b85acef8100000000830492506020015b662386f26fc100008310612e9f57662386f26fc10000830492506010015b6305f5e1008310612eb7576305f5e100830492506008015b6127108310612ecb57612710830492506004015b60648310612edd576064830492506002015b600a83106104e25760010192915050565b60606104e273ffffffffffffffffffffffffffffffffffffffff831660145b60606000612f1c836002613f97565b612f27906002613fae565b67ffffffffffffffff811115612f3f57612f3f61317f565b6040519080825280601f01601f191660200182016040528015612f69576020820181803683370190505b5090507f300000000000000000000000000000000000000000000000000000000000000081600081518110612fa057612fa0613fc1565b60200101907effffffffffffffffffffffffffffffffffffffffffffffffffffffffffffff1916908160001a9053507f78000000000000000000000000000000000000000000000000000000000000008160018151811061300357613003613fc1565b60200101907effffffffffffffffffffffffffffffffffffffffffffffffffffffffffffff1916908160001a905350600061303f846002613f97565b61304a906001613fae565b90505b60018111156130e7577f303132333435363738396162636465660000000000000000000000000000000085600f166010811061308b5761308b613fc1565b1a60f81b8282815181106130a1576130a1613fc1565b60200101907effffffffffffffffffffffffffffffffffffffffffffffffffffffffffffff1916908160001a90535060049490941c936130e081613ff0565b905061304d565b5083156131365760405162461bcd60e51b815260206004820181905260248201527f537472696e67733a20686578206c656e67746820696e73756666696369656e746044820152606401610834565b9392505050565b60006020828403121561314f57600080fd5b81357fffffffff000000000000000000000000000000000000000000000000000000008116811461313657600080fd5b7f4e487b7100000000000000000000000000000000000000000000000000000000600052604160045260246000fd5b600082601f8301126131bf57600080fd5b813567ffffffffffffffff808211156131da576131da61317f565b604051601f8301601f19908116603f011681019082821181831017156132025761320261317f565b8160405283815286602085880101111561321b57600080fd5b836020870160208301376000602085830101528094505050505092915050565b60006020828403121561324d57600080fd5b813567ffffffffffffffff81111561326457600080fd5b613270848285016131ae565b949350505050565b60005b8381101561329357818101518382015260200161327b565b50506000910152565b600081518084526132b4816020860160208601613278565b601f01601f19169290920160200192915050565b60e0815260006132db60e083018a61329c565b73ffffffffffffffffffffffffffffffffffffffff891660208401528281036040840152613309818961329c565b9050828103606084015261331d818861329c565b90508281036080840152613331818761329c565b94151560a0840152505060c0015295945050505050565b8035801515811461335857600080fd5b919050565b6000806040838503121561337057600080fd5b823567ffffffffffffffff81111561338757600080fd5b613393858286016131ae565b9250506133a260208401613348565b90509250929050565b6000602082840312156133bd57600080fd5b5035919050565b600080604083850312156133d757600080fd5b82359150602083013573ffffffffffffffffffffffffffffffffffffffff8116811461340257600080fd5b809150509250929050565b60e08152600061342060e083018a61329c565b8281036020840152613432818a61329c565b905073ffffffffffffffffffffffffffffffffffffffff88166040840152828103606084015261331d818861329c565b60008060006060848603121561347757600080fd5b833567ffffffffffffffff8082111561348f57600080fd5b61349b878388016131ae565b945060208601359150808211156134b157600080fd5b506134be868287016131ae565b9250506134cd60408501613348565b90509250925092565b600080600080608085870312156134ec57600080fd5b843567ffffffffffffffff8082111561350457600080fd5b613510888389016131ae565b9550602087013591508082111561352657600080fd5b613532888389016131ae565b9450604087013591508082111561354857600080fd5b50613555878288016131ae565b92505061356460608601613348565b905092959194509250565b600061010082518185526135858286018261329c565b9150506020830151848203602086015261359f828261329c565b91505060408301516135c9604086018273ffffffffffffffffffffffffffffffffffffffff169052565b50606083015184820360608601526135e1828261329c565b915050608083015184820360808601526135fb828261329c565b91505060a083015184820360a0860152613615828261329c565b91505060c083015161362b60c086018215159052565b5060e083015160e08501528091505092915050565b6000815160a0845261365560a085018261329c565b90506020830151848203602086015261366e828261329c565b91505073ffffffffffffffffffffffffffffffffffffffff6040840151166040850152606083015115156060850152608083015160808501528091505092915050565b6000815160c084526136c660c085018261329c565b9050602083015184820360208601526136df828261329c565b91505073ffffffffffffffffffffffffffffffffffffffff604084015116604085015260608301518482036060860152613719828261329c565b91505060808301511515608085015260a083015160a08501528091505092915050565b6000815160e0845261375160e085018261329c565b905073ffffffffffffffffffffffffffffffffffffffff60208401511660208501526040830151848203604086015261378a828261329c565b915050606083015184820360608601526137a4828261329c565b915050608083015184820360808601526137be828261329c565b91505060a0830151151560a085015260c083015160c08501528091505092915050565b60a081526000865160e060a08401526137fe61018084018261329c565b905060208801517fffffffffffffffffffffffffffffffffffffffffffffffffffffffffffffff60808584030160c086015261383a838361329c565b925073ffffffffffffffffffffffffffffffffffffffff60408b01511660e086015260608a015191508085840301610100860152613878838361329c565b925060808a01519150808584030161012086015250613897828261329c565b91505060a08801516138ae61014085018215159052565b5060c088015161016084015282810360208401526138cc818861356f565b905082810360408401526138e08187613640565b905082810360608401526138f481866136b1565b90508281036080840152613908818561373c565b98975050505050505050565b602081526000613136602083018461329c565b60a08152600061393a60a083018861329c565b828103602084015261394c818861329c565b73ffffffffffffffffffffffffffffffffffffffff9690961660408401525050911515606083015260809091015292915050565b60c08152600061399360c083018961329c565b82810360208401526139a5818961329c565b905073ffffffffffffffffffffffffffffffffffffffff8716604084015282810360608401526139d5818761329c565b9415156080840152505060a00152949350505050565b600080600080600060a08688031215613a0357600080fd5b853567ffffffffffffffff80821115613a1b57600080fd5b613a2789838a016131ae565b96506020880135915080821115613a3d57600080fd5b613a4989838a016131ae565b95506040880135915080821115613a5f57600080fd5b613a6b89838a016131ae565b94506060880135915080821115613a8157600080fd5b50613a8e888289016131ae565b925050613a9d60808701613348565b90509295509295909350565b6000610100808352613abd8184018c61329c565b90508281036020840152613ad1818b61329c565b905073ffffffffffffffffffffffffffffffffffffffff891660408401528281036060840152613b01818961329c565b90508281036080840152613b15818861329c565b905082810360a0840152613b29818761329c565b94151560c0840152505060e001529695505050505050565b600181811c90821680613b5557607f821691505b602082108103613b8e577f4e487b7100000000000000000000000000000000000000000000000000000000600052602260045260246000fd5b50919050565b60008251613ba6818460208701613278565b9190910192915050565b6000808354613bbe81613b41565b60018281168015613bd65760018114613beb57613c1a565b60ff1984168752821515830287019450613c1a565b8760005260208060002060005b85811015613c115781548a820152908401908201613bf8565b50505082870194505b50929695505050505050565b7f4e487b7100000000000000000000000000000000000000000000000000000000600052601160045260246000fd5b60007fffffffffffffffffffffffffffffffffffffffffffffffffffffffffffffffff8203613c8657613c86613c26565b5060010190565b7f5052504800000000000000000000000000000000000000000000000000000000815260008251613cc5816004850160208701613278565b9190910160040192915050565b601f821115610a1b57600081815260208120601f850160051c81016020861015613cf95750805b601f850160051c820191505b81811015613d1857828155600101613d05565b505050505050565b815167ffffffffffffffff811115613d3a57613d3a61317f565b613d4e81613d488454613b41565b84613cd2565b602080601f831160018114613da15760008415613d6b5750858301515b7fffffffffffffffffffffffffffffffffffffffffffffffffffffffffffffffff600386901b1c1916600185901b178555613d18565b600085815260208120601f198616915b82811015613dd057888601518255948401946001909101908401613db1565b5085821015613e0c57878501517fffffffffffffffffffffffffffffffffffffffffffffffffffffffffffffffff600388901b60f8161c191681555b5050505050600190811b01905550565b7f504d544700000000000000000000000000000000000000000000000000000000815260008251613cc5816004850160208701613278565b7f5355504c59000000000000000000000000000000000000000000000000000000815260008251613e8c816005850160208701613278565b9190910160050192915050565b7f4d4b4e0000000000000000000000000000000000000000000000000000000000815260008251613ed1816003850160208701613278565b9190910160030192915050565b7f5044535400000000000000000000000000000000000000000000000000000000815260008251613cc5816004850160208701613278565b7f416363657373436f6e74726f6c3a206163636f756e7420000000000000000000815260008351613f4e816017850160208801613278565b7f206973206d697373696e6720726f6c65200000000000000000000000000000006017918401918201528351613f8b816028840160208801613278565b01602801949350505050565b80820281158282048414176104e2576104e2613c26565b808201808211156104e2576104e2613c26565b7f4e487b7100000000000000000000000000000000000000000000000000000000600052603260045260246000fd5b600081613fff57613fff613c26565b507fffffffffffffffffffffffffffffffffffffffffffffffffffffffffffffffff019056fea264697066735822122058938e2b48bfad2d7bdfcae23416a95dd3e7519ccfdc7e48478a31d569938f7264736f6c63430008120033",
  "linkReferences": {},
  "deployedLinkReferences": {}
}