{
  "_format": "hh-sol-artifact-1",
  "contractName": "Trace",
  "sourceName": "contracts/Trace.sol",
  "abi": [
    {
      "inputs": [
        {
          "internalType": "address",
          "name": "_rph",
          "type": "address"
        },
        {
          "internalType": "address",
          "name": "_distributor",
          "type": "address"
        },
        {
          "internalType": "address",
          "name": "_rumahMakan",
          "type": "address"
        }
      ],
      "stateMutability": "nonpayable",
      "type": "constructor"
    },
    {
      "anonymous": false,
      "inputs": [
        {
          "indexed": true,
          "internalType": "bytes32",
          "name": "role",
          "type": "bytes32"
        },
        {
          "indexed": true,
          "internalType": "bytes32",
          "name": "previousAdminRole",
          "type": "bytes32"
        },
        {
          "indexed": true,
          "internalType": "bytes32",
          "name": "newAdminRole",
          "type": "bytes32"
        }
      ],
      "name": "RoleAdminChanged",
      "type": "event"
    },
    {
      "anonymous": false,
      "inputs": [
        {
          "indexed": true,
          "internalType": "bytes32",
          "name": "role",
          "type": "bytes32"
        },
        {
          "indexed": true,
          "internalType": "address",
          "name": "account",
          "type": "address"
        },
        {
          "indexed": true,
          "internalType": "address",
          "name": "sender",
          "type": "address"
        }
      ],
      "name": "RoleGranted",
      "type": "event"
    },
    {
      "anonymous": false,
      "inputs": [
        {
          "indexed": true,
          "internalType": "bytes32",
          "name": "role",
          "type": "bytes32"
        },
        {
          "indexed": true,
          "internalType": "address",
          "name": "account",
          "type": "address"
        },
        {
          "indexed": true,
          "internalType": "address",
          "name": "sender",
          "type": "address"
        }
      ],
      "name": "RoleRevoked",
      "type": "event"
    },
    {
      "anonymous": false,
      "inputs": [
        {
          "indexed": false,
          "internalType": "string",
          "name": "ID_Makanan",
          "type": "string"
        },
        {
          "indexed": false,
          "internalType": "string",
          "name": "ID_ProdukDistributor",
          "type": "string"
        },
        {
          "indexed": false,
          "internalType": "address",
          "name": "Akun_RumahMakan",
          "type": "address"
        },
        {
          "indexed": false,
          "internalType": "string",
          "name": "nama",
          "type": "string"
        },
        {
          "indexed": false,
          "internalType": "string",
          "name": "tanggal_pengolahan",
          "type": "string"
        },
        {
          "indexed": false,
          "internalType": "bool",
          "name": "status_kehalalan",
          "type": "bool"
        },
        {
          "indexed": false,
          "internalType": "uint256",
          "name": "date",
          "type": "uint256"
        }
      ],
      "name": "TraceMakanan",
      "type": "event"
    },
    {
      "anonymous": false,
      "inputs": [
        {
          "indexed": false,
          "internalType": "string",
          "name": "ID_Pemotongan",
          "type": "string"
        },
        {
          "indexed": false,
          "internalType": "address",
          "name": "Akun_RPH",
          "type": "address"
        },
        {
          "indexed": false,
          "internalType": "string",
          "name": "jenis_kelamin",
          "type": "string"
        },
        {
          "indexed": false,
          "internalType": "string",
          "name": "tanggal_pemotongan",
          "type": "string"
        },
        {
          "indexed": false,
          "internalType": "bool",
          "name": "status_kehalalan",
          "type": "bool"
        },
        {
          "indexed": false,
          "internalType": "uint256",
          "name": "date",
          "type": "uint256"
        }
      ],
      "name": "TracePemotongan",
      "type": "event"
    },
    {
      "anonymous": false,
      "inputs": [
        {
          "indexed": false,
          "internalType": "string",
          "name": "ID_ProdukDistributor",
          "type": "string"
        },
        {
          "indexed": false,
          "internalType": "string",
          "name": "ID_ProdukRPH",
          "type": "string"
        },
        {
          "indexed": false,
          "internalType": "address",
          "name": "Akun_Distributor",
          "type": "address"
        },
        {
          "indexed": false,
          "internalType": "string",
          "name": "tanggal_penyimpanan",
          "type": "string"
        },
        {
          "indexed": false,
          "internalType": "string",
          "name": "tanggal_pengiriman",
          "type": "string"
        },
        {
          "indexed": false,
          "internalType": "string",
          "name": "tanggal_penerimaan",
          "type": "string"
        },
        {
          "indexed": false,
          "internalType": "bool",
          "name": "status_kehalalan",
          "type": "bool"
        },
        {
          "indexed": false,
          "internalType": "uint256",
          "name": "date",
          "type": "uint256"
        }
      ],
      "name": "TraceProdukDistributor",
      "type": "event"
    },
    {
      "anonymous": false,
      "inputs": [
        {
          "indexed": false,
          "internalType": "string",
          "name": "ID_ProdukRPH",
          "type": "string"
        },
        {
          "indexed": false,
          "internalType": "string",
          "name": "ID_Pemotongan",
          "type": "string"
        },
        {
          "indexed": false,
          "internalType": "address",
          "name": "Akun_RPH",
          "type": "address"
        },
        {
          "indexed": false,
          "internalType": "bool",
          "name": "status_kehalalan",
          "type": "bool"
        },
        {
          "indexed": false,
          "internalType": "uint256",
          "name": "date",
          "type": "uint256"
        }
      ],
      "name": "TraceProdukRPH",
      "type": "event"
    },
    {
      "inputs": [],
      "name": "DEFAULT_ADMIN_ROLE",
      "outputs": [
        {
          "internalType": "bytes32",
          "name": "",
          "type": "bytes32"
        }
      ],
      "stateMutability": "view",
      "type": "function"
    },
    {
      "inputs": [],
      "name": "DISTRIBUTOR",
      "outputs": [
        {
          "internalType": "bytes32",
          "name": "",
          "type": "bytes32"
        }
      ],
      "stateMutability": "view",
      "type": "function"
    },
    {
      "inputs": [],
      "name": "RPH",
      "outputs": [
        {
          "internalType": "bytes32",
          "name": "",
          "type": "bytes32"
        }
      ],
      "stateMutability": "view",
      "type": "function"
    },
    {
      "inputs": [],
      "name": "RUMAH_MAKAN",
      "outputs": [
        {
          "internalType": "bytes32",
          "name": "",
          "type": "bytes32"
        }
      ],
      "stateMutability": "view",
      "type": "function"
    },
    {
      "inputs": [
        {
          "internalType": "bytes32",
          "name": "role",
          "type": "bytes32"
        }
      ],
      "name": "getRoleAdmin",
      "outputs": [
        {
          "internalType": "bytes32",
          "name": "",
          "type": "bytes32"
        }
      ],
      "stateMutability": "view",
      "type": "function"
    },
    {
      "inputs": [
        {
          "internalType": "bytes32",
          "name": "role",
          "type": "bytes32"
        },
        {
          "internalType": "address",
          "name": "account",
          "type": "address"
        }
      ],
      "name": "grantRole",
      "outputs": [],
      "stateMutability": "nonpayable",
      "type": "function"
    },
    {
      "inputs": [
        {
          "internalType": "bytes32",
          "name": "role",
          "type": "bytes32"
        },
        {
          "internalType": "address",
          "name": "account",
          "type": "address"
        }
      ],
      "name": "hasRole",
      "outputs": [
        {
          "internalType": "bool",
          "name": "",
          "type": "bool"
        }
      ],
      "stateMutability": "view",
      "type": "function"
    },
    {
      "inputs": [
        {
          "internalType": "string",
          "name": "_ID_ProdukDistributor",
          "type": "string"
        },
        {
          "internalType": "string",
          "name": "_nama",
          "type": "string"
        },
        {
          "internalType": "string",
          "name": "_tanggal_pengolahan",
          "type": "string"
        },
        {
          "internalType": "bool",
          "name": "_status_kehalalan",
          "type": "bool"
        }
      ],
      "name": "inputMakanan",
      "outputs": [
        {
          "internalType": "string",
          "name": "",
          "type": "string"
        }
      ],
      "stateMutability": "nonpayable",
      "type": "function"
    },
    {
      "inputs": [
        {
          "internalType": "string",
          "name": "_jenis_kelamin",
          "type": "string"
        },
        {
          "internalType": "string",
          "name": "_tanggal_pemotongan",
          "type": "string"
        },
        {
          "internalType": "bool",
          "name": "_status_kehalalan",
          "type": "bool"
        }
      ],
      "name": "inputPemotongan",
      "outputs": [],
      "stateMutability": "nonpayable",
      "type": "function"
    },
    {
      "inputs": [
        {
          "internalType": "string",
          "name": "_ID_ProdukRPH",
          "type": "string"
        },
        {
          "internalType": "string",
          "name": "_tanggal_penyimpanan",
          "type": "string"
        },
        {
          "internalType": "string",
          "name": "_tanggal_pengiriman",
          "type": "string"
        },
        {
          "internalType": "string",
          "name": "_tanggal_penerimaan",
          "type": "string"
        },
        {
          "internalType": "bool",
          "name": "_status_kehalalan",
          "type": "bool"
        }
      ],
      "name": "inputProdukDistributor",
      "outputs": [],
      "stateMutability": "nonpayable",
      "type": "function"
    },
    {
      "inputs": [
        {
          "internalType": "string",
          "name": "_ID_Pemotongan",
          "type": "string"
        },
        {
          "internalType": "bool",
          "name": "_status_kehalalan",
          "type": "bool"
        }
      ],
      "name": "inputProdukRPH",
      "outputs": [],
      "stateMutability": "nonpayable",
      "type": "function"
    },
    {
      "inputs": [
        {
          "internalType": "string",
          "name": "",
          "type": "string"
        }
      ],
      "name": "makanan",
      "outputs": [
        {
          "internalType": "string",
          "name": "ID",
          "type": "string"
        },
        {
          "internalType": "string",
          "name": "ID_ProdukDistributor",
          "type": "string"
        },
        {
          "internalType": "address",
          "name": "Akun_RumahMakan",
          "type": "address"
        },
        {
          "internalType": "string",
          "name": "nama",
          "type": "string"
        },
        {
          "internalType": "string",
          "name": "tanggal_pengolahan",
          "type": "string"
        },
        {
          "internalType": "bool",
          "name": "status_kehalalan",
          "type": "bool"
        },
        {
          "internalType": "uint256",
          "name": "date",
          "type": "uint256"
        }
      ],
      "stateMutability": "view",
      "type": "function"
    },
    {
      "inputs": [
        {
          "internalType": "string",
          "name": "",
          "type": "string"
        }
      ],
      "name": "pemotongan",
      "outputs": [
        {
          "internalType": "string",
          "name": "ID",
          "type": "string"
        },
        {
          "internalType": "address",
          "name": "Akun_RPH",
          "type": "address"
        },
        {
          "internalType": "string",
          "name": "jenis_kelamin",
          "type": "string"
        },
        {
          "internalType": "string",
          "name": "tanggal_pemotongan",
          "type": "string"
        },
        {
          "internalType": "bool",
          "name": "status_kehalalan",
          "type": "bool"
        },
        {
          "internalType": "uint256",
          "name": "date",
          "type": "uint256"
        }
      ],
      "stateMutability": "view",
      "type": "function"
    },
    {
      "inputs": [
        {
          "internalType": "string",
          "name": "",
          "type": "string"
        }
      ],
      "name": "produkDistributor",
      "outputs": [
        {
          "internalType": "string",
          "name": "ID",
          "type": "string"
        },
        {
          "internalType": "string",
          "name": "ID_ProdukRPH",
          "type": "string"
        },
        {
          "internalType": "address",
          "name": "Akun_Distributor",
          "type": "address"
        },
        {
          "internalType": "string",
          "name": "tanggal_penyimpanan",
          "type": "string"
        },
        {
          "internalType": "string",
          "name": "tanggal_pengiriman",
          "type": "string"
        },
        {
          "internalType": "string",
          "name": "tanggal_penerimaan",
          "type": "string"
        },
        {
          "internalType": "bool",
          "name": "status_kehalalan",
          "type": "bool"
        },
        {
          "internalType": "uint256",
          "name": "date",
          "type": "uint256"
        }
      ],
      "stateMutability": "view",
      "type": "function"
    },
    {
      "inputs": [
        {
          "internalType": "string",
          "name": "",
          "type": "string"
        }
      ],
      "name": "produkRPH",
      "outputs": [
        {
          "internalType": "string",
          "name": "ID",
          "type": "string"
        },
        {
          "internalType": "string",
          "name": "ID_Pemotongan",
          "type": "string"
        },
        {
          "internalType": "address",
          "name": "Akun_RPH",
          "type": "address"
        },
        {
          "internalType": "bool",
          "name": "status_kehalalan",
          "type": "bool"
        },
        {
          "internalType": "uint256",
          "name": "date",
          "type": "uint256"
        }
      ],
      "stateMutability": "view",
      "type": "function"
    },
    {
      "inputs": [
        {
          "internalType": "bytes32",
          "name": "role",
          "type": "bytes32"
        },
        {
          "internalType": "address",
          "name": "account",
          "type": "address"
        }
      ],
      "name": "renounceRole",
      "outputs": [],
      "stateMutability": "nonpayable",
      "type": "function"
    },
    {
      "inputs": [
        {
          "internalType": "bytes32",
          "name": "role",
          "type": "bytes32"
        },
        {
          "internalType": "address",
          "name": "account",
          "type": "address"
        }
      ],
      "name": "revokeRole",
      "outputs": [],
      "stateMutability": "nonpayable",
      "type": "function"
    },
    {
      "inputs": [
        {
          "internalType": "bytes4",
          "name": "interfaceId",
          "type": "bytes4"
        }
      ],
      "name": "supportsInterface",
      "outputs": [
        {
          "internalType": "bool",
          "name": "",
          "type": "bool"
        }
      ],
      "stateMutability": "view",
      "type": "function"
    },
    {
      "inputs": [
        {
          "internalType": "string",
          "name": "_ID_Makanan",
          "type": "string"
        }
      ],
      "name": "traceSupplyChain",
      "outputs": [
        {
          "components": [
            {
              "internalType": "string",
              "name": "ID",
              "type": "string"
            },
            {
              "internalType": "string",
              "name": "ID_ProdukDistributor",
              "type": "string"
            },
            {
              "internalType": "address",
              "name": "Akun_RumahMakan",
              "type": "address"
            },
            {
              "internalType": "string",
              "name": "nama",
              "type": "string"
            },
            {
              "internalType": "string",
              "name": "tanggal_pengolahan",
              "type": "string"
            },
            {
              "internalType": "bool",
              "name": "status_kehalalan",
              "type": "bool"
            },
            {
              "internalType": "uint256",
              "name": "date",
              "type": "uint256"
            }
          ],
          "internalType": "struct Trace.Makanan",
          "name": "",
          "type": "tuple"
        },
        {
          "components": [
            {
              "internalType": "string",
              "name": "ID",
              "type": "string"
            },
            {
              "internalType": "string",
              "name": "ID_ProdukRPH",
              "type": "string"
            },
            {
              "internalType": "address",
              "name": "Akun_Distributor",
              "type": "address"
            },
            {
              "internalType": "string",
              "name": "tanggal_penyimpanan",
              "type": "string"
            },
            {
              "internalType": "string",
              "name": "tanggal_pengiriman",
              "type": "string"
            },
            {
              "internalType": "string",
              "name": "tanggal_penerimaan",
              "type": "string"
            },
            {
              "internalType": "bool",
              "name": "status_kehalalan",
              "type": "bool"
            },
            {
              "internalType": "uint256",
              "name": "date",
              "type": "uint256"
            }
          ],
          "internalType": "struct Trace.ProdukDistributor",
          "name": "",
          "type": "tuple"
        },
        {
          "components": [
            {
              "internalType": "string",
              "name": "ID",
              "type": "string"
            },
            {
              "internalType": "string",
              "name": "ID_Pemotongan",
              "type": "string"
            },
            {
              "internalType": "address",
              "name": "Akun_RPH",
              "type": "address"
            },
            {
              "internalType": "bool",
              "name": "status_kehalalan",
              "type": "bool"
            },
            {
              "internalType": "uint256",
              "name": "date",
              "type": "uint256"
            }
          ],
          "internalType": "struct Trace.ProdukRPH",
          "name": "",
          "type": "tuple"
        },
        {
          "components": [
            {
              "internalType": "string",
              "name": "ID",
              "type": "string"
            },
            {
              "internalType": "address",
              "name": "Akun_RPH",
              "type": "address"
            },
            {
              "internalType": "string",
              "name": "jenis_kelamin",
              "type": "string"
            },
            {
              "internalType": "string",
              "name": "tanggal_pemotongan",
              "type": "string"
            },
            {
              "internalType": "bool",
              "name": "status_kehalalan",
              "type": "bool"
            },
            {
              "internalType": "uint256",
              "name": "date",
              "type": "uint256"
            }
          ],
          "internalType": "struct Trace.Pemotongan",
          "name": "",
          "type": "tuple"
        }
      ],
      "stateMutability": "view",
      "type": "function"
    }
  ],
  "bytecode": "0x60806040523480156200001157600080fd5b5060405162003a3b38038062003a3b83398101604081905262000034916200019b565b62000041600033620000ce565b6200006d7f58bd82b5be4fe0ab9451464d252f5b165e247e7ccc04cb7f3c29168b9be6088b84620000ce565b620000997f85faced7bde13e1a7dad704b895f006e704f207617d68166b31ba2d79624862d83620000ce565b620000c57fa195f952fbc977b41b0dac4f26325301606d2789b6e6e1f593ea183a62e7a03382620000ce565b505050620001e5565b620000da8282620000de565b5050565b6000828152602081815260408083206001600160a01b038516845290915290205460ff16620000da576000828152602081815260408083206001600160a01b03851684529091529020805460ff191660011790556200013a3390565b6001600160a01b0316816001600160a01b0316837f2f8788117e7eff1d82e926ec794901d17c78024a50270940304540a733656f0d60405160405180910390a45050565b80516001600160a01b03811681146200019657600080fd5b919050565b600080600060608486031215620001b157600080fd5b620001bc846200017e565b9250620001cc602085016200017e565b9150620001dc604085016200017e565b90509250925092565b61384680620001f56000396000f3fe608060405234801561001057600080fd5b50600436106101515760003560e01c806391d14854116100cd578063c4f646f711610081578063deac2e0511610066578063deac2e051461035e578063e64c4ef214610383578063f813b6f01461039657600080fd5b8063c4f646f714610327578063d547741f1461034b57600080fd5b80639e79e8ef116100b25780639e79e8ef146102dc578063a217fddf146102ff578063b38934fc1461030757600080fd5b806391d14854146102715780639c26149f146102b557600080fd5b80632f2ff15d116101245780633c009cd7116101095780633c009cd7146102115780634bb4a00f146102375780634ce18e4a1461024a57600080fd5b80632f2ff15d146101eb57806336568abe146101fe57600080fd5b806301ffc9a71461015657806308919dc91461017e57806316f13e75146101b3578063248a9ca3146101c8575b600080fd5b610169610164366004612a7d565b6103bd565b60405190151581526020015b60405180910390f35b6101a57f58bd82b5be4fe0ab9451464d252f5b165e247e7ccc04cb7f3c29168b9be6088b81565b604051908152602001610175565b6101c66101c1366004612b90565b610456565b005b6101a56101d6366004612bde565b60009081526020819052604090206001015490565b6101c66101f9366004612bf7565b610713565b6101c661020c366004612bf7565b61073d565b61022461021f366004612c40565b6107f0565b6040516101759796959493929190612ccd565b6101c6610245366004612d4d565b610a75565b6101a57fa195f952fbc977b41b0dac4f26325301606d2789b6e6e1f593ea183a62e7a03381565b61016961027f366004612bf7565b60009182526020828152604080842073ffffffffffffffffffffffffffffffffffffffff93909316845291905290205460ff1690565b6101a57f85faced7bde13e1a7dad704b895f006e704f207617d68166b31ba2d79624862d81565b6102ef6102ea366004612c40565b610c87565b6040516101759493929190612f8e565b6101a5600081565b61031a6103153660046130ab565b6117c0565b6040516101759190613144565b61033a610335366004612c40565b611ab0565b604051610175959493929190613157565b6101c6610359366004612bf7565b611c27565b61037161036c366004612c40565b611c4c565b604051610175969594939291906131b0565b6101c661039136600461321b565b611e43565b6103a96103a4366004612c40565b61214f565b6040516101759897969594939291906132d9565b60007fffffffff0000000000000000000000000000000000000000000000000000000082167f7965db0b00000000000000000000000000000000000000000000000000000000148061045057507f01ffc9a7000000000000000000000000000000000000000000000000000000007fffffffff000000000000000000000000000000000000000000000000000000008316145b92915050565b7f58bd82b5be4fe0ab9451464d252f5b165e247e7ccc04cb7f3c29168b9be6088b61048081612462565b60408051600081526020810191829052518120906005906104a2908690613371565b908152604051602091819003820181206104be929091016133e0565b6040516020818303038152906040528051906020012003610540576040517f08c379a000000000000000000000000000000000000000000000000000000000815260206004820152601f60248201527f446174612050656d6f746f6e67616e20546964616b205465726461667461720060448201526064015b60405180910390fd5b6001821515146105ac576040517f08c379a000000000000000000000000000000000000000000000000000000000815260206004820152601960248201527f5374617475732050726f64756b2068617275732068616c616c000000000000006044820152606401610537565b600280549060006105bc83613485565b919050555060006105ce60025461246f565b6040516020016105de91906134bd565b60408051601f1981840301815260a083018252808352602083018790523383830152600160608401524260808401529051909250600690610620908490613371565b9081526040519081900360200190208151819061063d9082613550565b50602082015160018201906106529082613550565b506040828101516002830180546060860151151574010000000000000000000000000000000000000000027fffffffffffffffffffffff00000000000000000000000000000000000000000090911673ffffffffffffffffffffffffffffffffffffffff90931692909217919091179055608090920151600390910155517f305f4a5d684fc34fab0fa76edeae83280fdcf1e5410a5e921a6ad748e616f46e906107059083908790339088904290613157565b60405180910390a150505050565b60008281526020819052604090206001015461072e81612462565b610738838361252d565b505050565b73ffffffffffffffffffffffffffffffffffffffff811633146107e2576040517f08c379a000000000000000000000000000000000000000000000000000000000815260206004820152602f60248201527f416363657373436f6e74726f6c3a2063616e206f6e6c792072656e6f756e636560448201527f20726f6c657320666f722073656c6600000000000000000000000000000000006064820152608401610537565b6107ec82826125ff565b5050565b80516020818301810180516008825292820191909301209152805481906108169061338d565b80601f01602080910402602001604051908101604052809291908181526020018280546108429061338d565b801561088f5780601f106108645761010080835404028352916020019161088f565b820191906000526020600020905b81548152906001019060200180831161087257829003601f168201915b5050505050908060010180546108a49061338d565b80601f01602080910402602001604051908101604052809291908181526020018280546108d09061338d565b801561091d5780601f106108f25761010080835404028352916020019161091d565b820191906000526020600020905b81548152906001019060200180831161090057829003601f168201915b5050506002840154600385018054949573ffffffffffffffffffffffffffffffffffffffff9092169491935091506109549061338d565b80601f01602080910402602001604051908101604052809291908181526020018280546109809061338d565b80156109cd5780601f106109a2576101008083540402835291602001916109cd565b820191906000526020600020905b8154815290600101906020018083116109b057829003601f168201915b5050505050908060040180546109e29061338d565b80601f0160208091040260200160405190810160405280929190818152602001828054610a0e9061338d565b8015610a5b5780601f10610a3057610100808354040283529160200191610a5b565b820191906000526020600020905b815481529060010190602001808311610a3e57829003601f168201915b505050506005830154600690930154919260ff1691905087565b7f58bd82b5be4fe0ab9451464d252f5b165e247e7ccc04cb7f3c29168b9be6088b610a9f81612462565b600182151514610b0b576040517f08c379a000000000000000000000000000000000000000000000000000000000815260206004820152601960248201527f5374617475732050726f64756b2068617275732068616c616c000000000000006044820152606401610537565b60018054906000610b1b83613485565b91905055506000610b2d60015461246f565b604051602001610b3d919061364c565b60408051601f1981840301815260c0830182528083523360208401528282018890526060830187905285151560808401524260a08401529051909250600590610b87908490613371565b90815260405190819003602001902081518190610ba49082613550565b5060208201516001820180547fffffffffffffffffffffffff00000000000000000000000000000000000000001673ffffffffffffffffffffffffffffffffffffffff90921691909117905560408201516002820190610c049082613550565b5060608201516003820190610c199082613550565b50608082015160048201805460ff191691151591909117905560a0909101516005909101556040517f59c647b962ce839ce008141f7dded874b602f24e1c0a0c58b6a388cb0922e36290610c78908390339089908990899042906131b0565b60405180910390a15050505050565b610cdf6040518060e001604052806060815260200160608152602001600073ffffffffffffffffffffffffffffffffffffffff1681526020016060815260200160608152602001600015158152602001600081525090565b610d3f6040518061010001604052806060815260200160608152602001600073ffffffffffffffffffffffffffffffffffffffff168152602001606081526020016060815260200160608152602001600015158152602001600081525090565b610d896040518060a001604052806060815260200160608152602001600073ffffffffffffffffffffffffffffffffffffffff168152602001600015158152602001600081525090565b610dda6040518060c0016040528060608152602001600073ffffffffffffffffffffffffffffffffffffffff1681526020016060815260200160608152602001600015158152602001600081525090565b6000600886604051610dec9190613371565b90815260200160405180910390206040518060e0016040529081600082018054610e159061338d565b80601f0160208091040260200160405190810160405280929190818152602001828054610e419061338d565b8015610e8e5780601f10610e6357610100808354040283529160200191610e8e565b820191906000526020600020905b815481529060010190602001808311610e7157829003601f168201915b50505050508152602001600182018054610ea79061338d565b80601f0160208091040260200160405190810160405280929190818152602001828054610ed39061338d565b8015610f205780601f10610ef557610100808354040283529160200191610f20565b820191906000526020600020905b815481529060010190602001808311610f0357829003601f168201915b5050509183525050600282015473ffffffffffffffffffffffffffffffffffffffff166020820152600382018054604090920191610f5d9061338d565b80601f0160208091040260200160405190810160405280929190818152602001828054610f899061338d565b8015610fd65780601f10610fab57610100808354040283529160200191610fd6565b820191906000526020600020905b815481529060010190602001808311610fb957829003601f168201915b50505050508152602001600482018054610fef9061338d565b80601f016020809104026020016040519081016040528092919081815260200182805461101b9061338d565b80156110685780601f1061103d57610100808354040283529160200191611068565b820191906000526020600020905b81548152906001019060200180831161104b57829003601f168201915b5050509183525050600582015460ff1615156020808301919091526006909201546040918201529082015190519192506000916007916110a791613371565b9081526020016040518091039020604051806101000160405290816000820180546110d19061338d565b80601f01602080910402602001604051908101604052809291908181526020018280546110fd9061338d565b801561114a5780601f1061111f5761010080835404028352916020019161114a565b820191906000526020600020905b81548152906001019060200180831161112d57829003601f168201915b505050505081526020016001820180546111639061338d565b80601f016020809104026020016040519081016040528092919081815260200182805461118f9061338d565b80156111dc5780601f106111b1576101008083540402835291602001916111dc565b820191906000526020600020905b8154815290600101906020018083116111bf57829003601f168201915b5050509183525050600282015473ffffffffffffffffffffffffffffffffffffffff1660208201526003820180546040909201916112199061338d565b80601f01602080910402602001604051908101604052809291908181526020018280546112459061338d565b80156112925780601f1061126757610100808354040283529160200191611292565b820191906000526020600020905b81548152906001019060200180831161127557829003601f168201915b505050505081526020016004820180546112ab9061338d565b80601f01602080910402602001604051908101604052809291908181526020018280546112d79061338d565b80156113245780601f106112f957610100808354040283529160200191611324565b820191906000526020600020905b81548152906001019060200180831161130757829003601f168201915b5050505050815260200160058201805461133d9061338d565b80601f01602080910402602001604051908101604052809291908181526020018280546113699061338d565b80156113b65780601f1061138b576101008083540402835291602001916113b6565b820191906000526020600020905b81548152906001019060200180831161139957829003601f168201915b505050918352505060068281015460ff1615156020808401919091526007909301546040928301529183015190519293506000926113f49190613371565b90815260200160405180910390206040518060a001604052908160008201805461141d9061338d565b80601f01602080910402602001604051908101604052809291908181526020018280546114499061338d565b80156114965780601f1061146b57610100808354040283529160200191611496565b820191906000526020600020905b81548152906001019060200180831161147957829003601f168201915b505050505081526020016001820180546114af9061338d565b80601f01602080910402602001604051908101604052809291908181526020018280546114db9061338d565b80156115285780601f106114fd57610100808354040283529160200191611528565b820191906000526020600020905b81548152906001019060200180831161150b57829003601f168201915b5050509183525050600282015473ffffffffffffffffffffffffffffffffffffffff81166020808401919091527401000000000000000000000000000000000000000090910460ff16151560408084019190915260039093015460609092019190915282015190519192506000916005916115a291613371565b90815260200160405180910390206040518060c00160405290816000820180546115cb9061338d565b80601f01602080910402602001604051908101604052809291908181526020018280546115f79061338d565b80156116445780601f1061161957610100808354040283529160200191611644565b820191906000526020600020905b81548152906001019060200180831161162757829003601f168201915b5050509183525050600182015473ffffffffffffffffffffffffffffffffffffffff1660208201526002820180546040909201916116819061338d565b80601f01602080910402602001604051908101604052809291908181526020018280546116ad9061338d565b80156116fa5780601f106116cf576101008083540402835291602001916116fa565b820191906000526020600020905b8154815290600101906020018083116116dd57829003601f168201915b505050505081526020016003820180546117139061338d565b80601f016020809104026020016040519081016040528092919081815260200182805461173f9061338d565b801561178c5780601f106117615761010080835404028352916020019161178c565b820191906000526020600020905b81548152906001019060200180831161176f57829003601f168201915b5050509183525050600482015460ff1615156020820152600590910154604090910152939992985090965091945092505050565b60607fa195f952fbc977b41b0dac4f26325301606d2789b6e6e1f593ea183a62e7a0336117ec81612462565b604080516000815260208101918290525181209060079061180e908990613371565b9081526040516020918190038201812061182a929091016133e0565b60405160208183030381529060405280519060200120036118a7576040517f08c379a000000000000000000000000000000000000000000000000000000000815260206004820152601f60248201527f446174612050726f64756b2052504820546964616b20546572646166746172006044820152606401610537565b600183151514611913576040517f08c379a000000000000000000000000000000000000000000000000000000000815260206004820152601960248201527f5374617475732050726f64756b2068617275732068616c616c000000000000006044820152606401610537565b6004805490600061192383613485565b9190505550600061193560045461246f565b6040516020016119459190613684565b60408051601f1981840301815260e083018252808352602083018a90523383830152606083018990526080830188905286151560a08401524260c08401529051909250600890611996908490613371565b908152604051908190036020019020815181906119b39082613550565b50602082015160018201906119c89082613550565b5060408201516002820180547fffffffffffffffffffffffff00000000000000000000000000000000000000001673ffffffffffffffffffffffffffffffffffffffff90921691909117905560608201516003820190611a289082613550565b5060808201516004820190611a3d9082613550565b5060a082015160058201805460ff191691151591909117905560c0909101516006909101556040517fa0238f7ebdad108fecaf0e455720a289873d718ab34c00f835c6be2f7f053f2f90611a9e9083908a9033908b908b908b904290612ccd565b60405180910390a19695505050505050565b8051602081830181018051600682529282019190930120915280548190611ad69061338d565b80601f0160208091040260200160405190810160405280929190818152602001828054611b029061338d565b8015611b4f5780601f10611b2457610100808354040283529160200191611b4f565b820191906000526020600020905b815481529060010190602001808311611b3257829003601f168201915b505050505090806001018054611b649061338d565b80601f0160208091040260200160405190810160405280929190818152602001828054611b909061338d565b8015611bdd5780601f10611bb257610100808354040283529160200191611bdd565b820191906000526020600020905b815481529060010190602001808311611bc057829003601f168201915b505050506002830154600390930154919273ffffffffffffffffffffffffffffffffffffffff8116927401000000000000000000000000000000000000000090910460ff16915085565b600082815260208190526040902060010154611c4281612462565b61073883836125ff565b8051602081830181018051600582529282019190930120915280548190611c729061338d565b80601f0160208091040260200160405190810160405280929190818152602001828054611c9e9061338d565b8015611ceb5780601f10611cc057610100808354040283529160200191611ceb565b820191906000526020600020905b815481529060010190602001808311611cce57829003601f168201915b5050506001840154600285018054949573ffffffffffffffffffffffffffffffffffffffff909216949193509150611d229061338d565b80601f0160208091040260200160405190810160405280929190818152602001828054611d4e9061338d565b8015611d9b5780601f10611d7057610100808354040283529160200191611d9b565b820191906000526020600020905b815481529060010190602001808311611d7e57829003601f168201915b505050505090806003018054611db09061338d565b80601f0160208091040260200160405190810160405280929190818152602001828054611ddc9061338d565b8015611e295780601f10611dfe57610100808354040283529160200191611e29565b820191906000526020600020905b815481529060010190602001808311611e0c57829003601f168201915b505050506004830154600590930154919260ff1691905086565b7f85faced7bde13e1a7dad704b895f006e704f207617d68166b31ba2d79624862d611e6d81612462565b6040805160008152602081019182905251812090600690611e8f908990613371565b90815260405160209181900382018120611eab929091016133e0565b6040516020818303038152906040528051906020012003611f28576040517f08c379a000000000000000000000000000000000000000000000000000000000815260206004820152601f60248201527f446174612050726f64756b2052504820546964616b20546572646166746172006044820152606401610537565b600182151514611f94576040517f08c379a000000000000000000000000000000000000000000000000000000000815260206004820152601960248201527f5374617475732050726f64756b2068617275732068616c616c000000000000006044820152606401610537565b60038054906000611fa483613485565b91905055506000611fb660035461246f565b604051602001611fc691906136c9565b60408051601f1981840301815261010083018252808352602083018a90523383830152606083018990526080830188905260a0830187905285151560c08401524260e0840152905190925060079061201f908490613371565b9081526040519081900360200190208151819061203c9082613550565b50602082015160018201906120519082613550565b5060408201516002820180547fffffffffffffffffffffffff00000000000000000000000000000000000000001673ffffffffffffffffffffffffffffffffffffffff909216919091179055606082015160038201906120b19082613550565b50608082015160048201906120c69082613550565b5060a082015160058201906120db9082613550565b5060c082015160068201805460ff191691151591909117905560e0909101516007909101556040517fca5e87f08d1fb65ef38f4b64816370124acbc059d2e0e81c414baa4e5bfa0c529061213e9083908a9033908b908b908b908b9042906132d9565b60405180910390a150505050505050565b80516020818301810180516007825292820191909301209152805481906121759061338d565b80601f01602080910402602001604051908101604052809291908181526020018280546121a19061338d565b80156121ee5780601f106121c3576101008083540402835291602001916121ee565b820191906000526020600020905b8154815290600101906020018083116121d157829003601f168201915b5050505050908060010180546122039061338d565b80601f016020809104026020016040519081016040528092919081815260200182805461222f9061338d565b801561227c5780601f106122515761010080835404028352916020019161227c565b820191906000526020600020905b81548152906001019060200180831161225f57829003601f168201915b5050506002840154600385018054949573ffffffffffffffffffffffffffffffffffffffff9092169491935091506122b39061338d565b80601f01602080910402602001604051908101604052809291908181526020018280546122df9061338d565b801561232c5780601f106123015761010080835404028352916020019161232c565b820191906000526020600020905b81548152906001019060200180831161230f57829003601f168201915b5050505050908060040180546123419061338d565b80601f016020809104026020016040519081016040528092919081815260200182805461236d9061338d565b80156123ba5780601f1061238f576101008083540402835291602001916123ba565b820191906000526020600020905b81548152906001019060200180831161239d57829003601f168201915b5050505050908060050180546123cf9061338d565b80601f01602080910402602001604051908101604052809291908181526020018280546123fb9061338d565b80156124485780601f1061241d57610100808354040283529160200191612448565b820191906000526020600020905b81548152906001019060200180831161242b57829003601f168201915b505050506006830154600790930154919260ff1691905088565b61246c8133612698565b50565b6060600061247c83612732565b600101905060008167ffffffffffffffff81111561249c5761249c612abf565b6040519080825280601f01601f1916602001820160405280156124c6576020820181803683370190505b5090508181016020015b7fffffffffffffffffffffffffffffffffffffffffffffffffffffffffffffffff017f3031323334353637383961626364656600000000000000000000000000000000600a86061a8153600a85049450846124d057509392505050565b60008281526020818152604080832073ffffffffffffffffffffffffffffffffffffffff8516845290915290205460ff166107ec5760008281526020818152604080832073ffffffffffffffffffffffffffffffffffffffff851684529091529020805460ff191660011790556125a13390565b73ffffffffffffffffffffffffffffffffffffffff168173ffffffffffffffffffffffffffffffffffffffff16837f2f8788117e7eff1d82e926ec794901d17c78024a50270940304540a733656f0d60405160405180910390a45050565b60008281526020818152604080832073ffffffffffffffffffffffffffffffffffffffff8516845290915290205460ff16156107ec5760008281526020818152604080832073ffffffffffffffffffffffffffffffffffffffff85168085529252808320805460ff1916905551339285917ff6391f5c32d9c69d2a47ea670b442974b53935d1edc7fd64eb21e047a839171b9190a45050565b60008281526020818152604080832073ffffffffffffffffffffffffffffffffffffffff8516845290915290205460ff166107ec576126d681612814565b6126e1836020612833565b6040516020016126f2929190613701565b60408051601f19818403018152908290527f08c379a000000000000000000000000000000000000000000000000000000000825261053791600401613144565b6000807a184f03e93ff9f4daa797ed6e38ed64bf6a1f010000000000000000831061277b577a184f03e93ff9f4daa797ed6e38ed64bf6a1f010000000000000000830492506040015b6d04ee2d6d415b85acef810000000083106127a7576d04ee2d6d415b85acef8100000000830492506020015b662386f26fc1000083106127c557662386f26fc10000830492506010015b6305f5e10083106127dd576305f5e100830492506008015b61271083106127f157612710830492506004015b60648310612803576064830492506002015b600a83106104505760010192915050565b606061045073ffffffffffffffffffffffffffffffffffffffff831660145b60606000612842836002613782565b61284d906002613799565b67ffffffffffffffff81111561286557612865612abf565b6040519080825280601f01601f19166020018201604052801561288f576020820181803683370190505b5090507f3000000000000000000000000000000000000000000000000000000000000000816000815181106128c6576128c66137ac565b60200101907effffffffffffffffffffffffffffffffffffffffffffffffffffffffffffff1916908160001a9053507f780000000000000000000000000000000000000000000000000000000000000081600181518110612929576129296137ac565b60200101907effffffffffffffffffffffffffffffffffffffffffffffffffffffffffffff1916908160001a9053506000612965846002613782565b612970906001613799565b90505b6001811115612a0d577f303132333435363738396162636465660000000000000000000000000000000085600f16601081106129b1576129b16137ac565b1a60f81b8282815181106129c7576129c76137ac565b60200101907effffffffffffffffffffffffffffffffffffffffffffffffffffffffffffff1916908160001a90535060049490941c93612a06816137db565b9050612973565b508315612a76576040517f08c379a000000000000000000000000000000000000000000000000000000000815260206004820181905260248201527f537472696e67733a20686578206c656e67746820696e73756666696369656e746044820152606401610537565b9392505050565b600060208284031215612a8f57600080fd5b81357fffffffff0000000000000000000000000000000000000000000000000000000081168114612a7657600080fd5b7f4e487b7100000000000000000000000000000000000000000000000000000000600052604160045260246000fd5b600082601f830112612aff57600080fd5b813567ffffffffffffffff80821115612b1a57612b1a612abf565b604051601f8301601f19908116603f01168101908282118183101715612b4257612b42612abf565b81604052838152866020858801011115612b5b57600080fd5b836020870160208301376000602085830101528094505050505092915050565b80358015158114612b8b57600080fd5b919050565b60008060408385031215612ba357600080fd5b823567ffffffffffffffff811115612bba57600080fd5b612bc685828601612aee565b925050612bd560208401612b7b565b90509250929050565b600060208284031215612bf057600080fd5b5035919050565b60008060408385031215612c0a57600080fd5b82359150602083013573ffffffffffffffffffffffffffffffffffffffff81168114612c3557600080fd5b809150509250929050565b600060208284031215612c5257600080fd5b813567ffffffffffffffff811115612c6957600080fd5b612c7584828501612aee565b949350505050565b60005b83811015612c98578181015183820152602001612c80565b50506000910152565b60008151808452612cb9816020860160208601612c7d565b601f01601f19169290920160200192915050565b60e081526000612ce060e083018a612ca1565b8281036020840152612cf2818a612ca1565b905073ffffffffffffffffffffffffffffffffffffffff881660408401528281036060840152612d228188612ca1565b90508281036080840152612d368187612ca1565b94151560a0840152505060c0015295945050505050565b600080600060608486031215612d6257600080fd5b833567ffffffffffffffff80821115612d7a57600080fd5b612d8687838801612aee565b94506020860135915080821115612d9c57600080fd5b50612da986828701612aee565b925050612db860408501612b7b565b90509250925092565b60006101008251818552612dd782860182612ca1565b91505060208301518482036020860152612df18282612ca1565b9150506040830151612e1b604086018273ffffffffffffffffffffffffffffffffffffffff169052565b5060608301518482036060860152612e338282612ca1565b91505060808301518482036080860152612e4d8282612ca1565b91505060a083015184820360a0860152612e678282612ca1565b91505060c0830151612e7d60c086018215159052565b5060e083015160e08501528091505092915050565b6000815160a08452612ea760a0850182612ca1565b905060208301518482036020860152612ec08282612ca1565b91505073ffffffffffffffffffffffffffffffffffffffff6040840151166040850152606083015115156060850152608083015160808501528091505092915050565b6000815160c08452612f1860c0850182612ca1565b905073ffffffffffffffffffffffffffffffffffffffff602084015116602085015260408301518482036040860152612f518282612ca1565b91505060608301518482036060860152612f6b8282612ca1565b91505060808301511515608085015260a083015160a08501528091505092915050565b608081526000855160e06080840152612fab610160840182612ca1565b905060208701517fffffffffffffffffffffffffffffffffffffffffffffffffffffffffffffff80808584030160a0860152612fe78383612ca1565b925073ffffffffffffffffffffffffffffffffffffffff60408a01511660c086015260608901519150808584030160e08601526130248383612ca1565b9250608089015191508085840301610100860152506130438282612ca1565b91505060a087015161305a61012085018215159052565b5060c087015161014084015282810360208401526130788187612dc1565b9050828103604084015261308c8186612e92565b905082810360608401526130a08185612f03565b979650505050505050565b600080600080608085870312156130c157600080fd5b843567ffffffffffffffff808211156130d957600080fd5b6130e588838901612aee565b955060208701359150808211156130fb57600080fd5b61310788838901612aee565b9450604087013591508082111561311d57600080fd5b5061312a87828801612aee565b92505061313960608601612b7b565b905092959194509250565b602081526000612a766020830184612ca1565b60a08152600061316a60a0830188612ca1565b828103602084015261317c8188612ca1565b73ffffffffffffffffffffffffffffffffffffffff9690961660408401525050911515606083015260809091015292915050565b60c0815260006131c360c0830189612ca1565b73ffffffffffffffffffffffffffffffffffffffff8816602084015282810360408401526131f18188612ca1565b905082810360608401526132058187612ca1565b9415156080840152505060a00152949350505050565b600080600080600060a0868803121561323357600080fd5b853567ffffffffffffffff8082111561324b57600080fd5b61325789838a01612aee565b9650602088013591508082111561326d57600080fd5b61327989838a01612aee565b9550604088013591508082111561328f57600080fd5b61329b89838a01612aee565b945060608801359150808211156132b157600080fd5b506132be88828901612aee565b9250506132cd60808701612b7b565b90509295509295909350565b60006101008083526132ed8184018c612ca1565b90508281036020840152613301818b612ca1565b905073ffffffffffffffffffffffffffffffffffffffff8916604084015282810360608401526133318189612ca1565b905082810360808401526133458188612ca1565b905082810360a08401526133598187612ca1565b94151560c0840152505060e001529695505050505050565b60008251613383818460208701612c7d565b9190910192915050565b600181811c908216806133a157607f821691505b6020821081036133da577f4e487b7100000000000000000000000000000000000000000000000000000000600052602260045260246000fd5b50919050565b60008083546133ee8161338d565b60018281168015613406576001811461341b5761344a565b60ff198416875282151583028701945061344a565b8760005260208060002060005b858110156134415781548a820152908401908201613428565b50505082870194505b50929695505050505050565b7f4e487b7100000000000000000000000000000000000000000000000000000000600052601160045260246000fd5b60007fffffffffffffffffffffffffffffffffffffffffffffffffffffffffffffffff82036134b6576134b6613456565b5060010190565b7f50525048000000000000000000000000000000000000000000000000000000008152600082516134f5816004850160208701612c7d565b9190910160040192915050565b601f82111561073857600081815260208120601f850160051c810160208610156135295750805b601f850160051c820191505b8181101561354857828155600101613535565b505050505050565b815167ffffffffffffffff81111561356a5761356a612abf565b61357e81613578845461338d565b84613502565b602080601f8311600181146135d1576000841561359b5750858301515b7fffffffffffffffffffffffffffffffffffffffffffffffffffffffffffffffff600386901b1c1916600185901b178555613548565b600085815260208120601f198616915b82811015613600578886015182559484019460019091019084016135e1565b508582101561363c57878501517fffffffffffffffffffffffffffffffffffffffffffffffffffffffffffffffff600388901b60f8161c191681555b5050505050600190811b01905550565b7f504d5447000000000000000000000000000000000000000000000000000000008152600082516134f5816004850160208701612c7d565b7f4d4b4e00000000000000000000000000000000000000000000000000000000008152600082516136bc816003850160208701612c7d565b9190910160030192915050565b7f50445354000000000000000000000000000000000000000000000000000000008152600082516134f5816004850160208701612c7d565b7f416363657373436f6e74726f6c3a206163636f756e7420000000000000000000815260008351613739816017850160208801612c7d565b7f206973206d697373696e6720726f6c65200000000000000000000000000000006017918401918201528351613776816028840160208801612c7d565b01602801949350505050565b808202811582820484141761045057610450613456565b8082018082111561045057610450613456565b7f4e487b7100000000000000000000000000000000000000000000000000000000600052603260045260246000fd5b6000816137ea576137ea613456565b507fffffffffffffffffffffffffffffffffffffffffffffffffffffffffffffffff019056fea264697066735822122029b6c4b13dd7a5e079276ac47b2048cb9e9ab79235e72e6e5001caecfa0e369164736f6c63430008120033",
  "linkReferences": {},
  "deployedLinkReferences": {}
}