{
  "_format": "hh-sol-artifact-1",
  "contractName": "Trace",
  "sourceName": "contracts/Trace.sol",
  "abi": [
    {
      "inputs": [],
      "stateMutability": "nonpayable",
      "type": "constructor"
    },
    {
      "anonymous": false,
      "inputs": [
        {
          "indexed": true,
          "internalType": "bytes32",
          "name": "role",
          "type": "bytes32"
        },
        {
          "indexed": true,
          "internalType": "bytes32",
          "name": "previousAdminRole",
          "type": "bytes32"
        },
        {
          "indexed": true,
          "internalType": "bytes32",
          "name": "newAdminRole",
          "type": "bytes32"
        }
      ],
      "name": "RoleAdminChanged",
      "type": "event"
    },
    {
      "anonymous": false,
      "inputs": [
        {
          "indexed": true,
          "internalType": "bytes32",
          "name": "role",
          "type": "bytes32"
        },
        {
          "indexed": true,
          "internalType": "address",
          "name": "account",
          "type": "address"
        },
        {
          "indexed": true,
          "internalType": "address",
          "name": "sender",
          "type": "address"
        }
      ],
      "name": "RoleGranted",
      "type": "event"
    },
    {
      "anonymous": false,
      "inputs": [
        {
          "indexed": true,
          "internalType": "bytes32",
          "name": "role",
          "type": "bytes32"
        },
        {
          "indexed": true,
          "internalType": "address",
          "name": "account",
          "type": "address"
        },
        {
          "indexed": true,
          "internalType": "address",
          "name": "sender",
          "type": "address"
        }
      ],
      "name": "RoleRevoked",
      "type": "event"
    },
    {
      "anonymous": false,
      "inputs": [
        {
          "indexed": false,
          "internalType": "string",
          "name": "ID_Makanan",
          "type": "string"
        },
        {
          "indexed": false,
          "internalType": "string",
          "name": "ID_ProdukDistributor",
          "type": "string"
        },
        {
          "indexed": false,
          "internalType": "address",
          "name": "Akun_RumahMakan",
          "type": "address"
        },
        {
          "indexed": false,
          "internalType": "string",
          "name": "nama",
          "type": "string"
        },
        {
          "indexed": false,
          "internalType": "string",
          "name": "tanggal_pengolahan",
          "type": "string"
        },
        {
          "indexed": false,
          "internalType": "bool",
          "name": "status_kehalalan",
          "type": "bool"
        },
        {
          "indexed": false,
          "internalType": "uint256",
          "name": "date",
          "type": "uint256"
        }
      ],
      "name": "TraceMakanan",
      "type": "event"
    },
    {
      "anonymous": false,
      "inputs": [
        {
          "indexed": false,
          "internalType": "string",
          "name": "ID_Pemotongan",
          "type": "string"
        },
        {
          "indexed": false,
          "internalType": "string",
          "name": "ID_Supplier",
          "type": "string"
        },
        {
          "indexed": false,
          "internalType": "address",
          "name": "Akun_RPH",
          "type": "address"
        },
        {
          "indexed": false,
          "internalType": "string",
          "name": "tanggal_pemotongan",
          "type": "string"
        },
        {
          "indexed": false,
          "internalType": "bool",
          "name": "status_kehalalan",
          "type": "bool"
        },
        {
          "indexed": false,
          "internalType": "uint256",
          "name": "date",
          "type": "uint256"
        }
      ],
      "name": "TracePemotongan",
      "type": "event"
    },
    {
      "anonymous": false,
      "inputs": [
        {
          "indexed": false,
          "internalType": "string",
          "name": "ID_ProdukDistributor",
          "type": "string"
        },
        {
          "indexed": false,
          "internalType": "string",
          "name": "ID_ProdukRPH",
          "type": "string"
        },
        {
          "indexed": false,
          "internalType": "address",
          "name": "Akun_Distributor",
          "type": "address"
        },
        {
          "indexed": false,
          "internalType": "string",
          "name": "tanggal_penyimpanan",
          "type": "string"
        },
        {
          "indexed": false,
          "internalType": "string",
          "name": "tanggal_pengiriman",
          "type": "string"
        },
        {
          "indexed": false,
          "internalType": "string",
          "name": "tanggal_penerimaan",
          "type": "string"
        },
        {
          "indexed": false,
          "internalType": "bool",
          "name": "status_kehalalan",
          "type": "bool"
        },
        {
          "indexed": false,
          "internalType": "uint256",
          "name": "date",
          "type": "uint256"
        }
      ],
      "name": "TraceProdukDistributor",
      "type": "event"
    },
    {
      "anonymous": false,
      "inputs": [
        {
          "indexed": false,
          "internalType": "string",
          "name": "ID_ProdukRPH",
          "type": "string"
        },
        {
          "indexed": false,
          "internalType": "string",
          "name": "ID_Pemotongan",
          "type": "string"
        },
        {
          "indexed": false,
          "internalType": "address",
          "name": "Akun_RPH",
          "type": "address"
        },
        {
          "indexed": false,
          "internalType": "bool",
          "name": "status_kehalalan",
          "type": "bool"
        },
        {
          "indexed": false,
          "internalType": "uint256",
          "name": "date",
          "type": "uint256"
        }
      ],
      "name": "TraceProdukRPH",
      "type": "event"
    },
    {
      "anonymous": false,
      "inputs": [
        {
          "indexed": false,
          "internalType": "string",
          "name": "ID_Supplier",
          "type": "string"
        },
        {
          "indexed": false,
          "internalType": "address",
          "name": "Akun_Supplier",
          "type": "address"
        },
        {
          "indexed": false,
          "internalType": "string",
          "name": "jenis_kelamin",
          "type": "string"
        },
        {
          "indexed": false,
          "internalType": "string",
          "name": "berat_sapi",
          "type": "string"
        },
        {
          "indexed": false,
          "internalType": "string",
          "name": "tanggal_pengiriman",
          "type": "string"
        },
        {
          "indexed": false,
          "internalType": "bool",
          "name": "status_kehalalan",
          "type": "bool"
        },
        {
          "indexed": false,
          "internalType": "uint256",
          "name": "date",
          "type": "uint256"
        }
      ],
      "name": "TraceSupplier",
      "type": "event"
    },
    {
      "inputs": [],
      "name": "DEFAULT_ADMIN_ROLE",
      "outputs": [
        {
          "internalType": "bytes32",
          "name": "",
          "type": "bytes32"
        }
      ],
      "stateMutability": "view",
      "type": "function"
    },
    {
      "inputs": [],
      "name": "DISTRIBUTOR",
      "outputs": [
        {
          "internalType": "bytes32",
          "name": "",
          "type": "bytes32"
        }
      ],
      "stateMutability": "view",
      "type": "function"
    },
    {
      "inputs": [],
      "name": "RPH",
      "outputs": [
        {
          "internalType": "bytes32",
          "name": "",
          "type": "bytes32"
        }
      ],
      "stateMutability": "view",
      "type": "function"
    },
    {
      "inputs": [],
      "name": "RUMAH_MAKAN",
      "outputs": [
        {
          "internalType": "bytes32",
          "name": "",
          "type": "bytes32"
        }
      ],
      "stateMutability": "view",
      "type": "function"
    },
    {
      "inputs": [],
      "name": "SUPPLIER",
      "outputs": [
        {
          "internalType": "bytes32",
          "name": "",
          "type": "bytes32"
        }
      ],
      "stateMutability": "view",
      "type": "function"
    },
    {
      "inputs": [
        {
          "internalType": "address",
          "name": "account",
          "type": "address"
        }
      ],
      "name": "getDetailStakeholder",
      "outputs": [
        {
          "components": [
            {
              "internalType": "address",
              "name": "account",
              "type": "address"
            },
            {
              "internalType": "string",
              "name": "jenis_akses",
              "type": "string"
            },
            {
              "internalType": "string",
              "name": "no_sertifikat",
              "type": "string"
            },
            {
              "internalType": "uint256",
              "name": "date",
              "type": "uint256"
            }
          ],
          "internalType": "struct Trace.Stakeholder",
          "name": "",
          "type": "tuple"
        }
      ],
      "stateMutability": "view",
      "type": "function"
    },
    {
      "inputs": [
        {
          "internalType": "string",
          "name": "_ID_Makanan",
          "type": "string"
        }
      ],
      "name": "getRelatedData",
      "outputs": [
        {
          "components": [
            {
              "internalType": "string",
              "name": "ID",
              "type": "string"
            },
            {
              "internalType": "string",
              "name": "ID_ProdukDistributor",
              "type": "string"
            },
            {
              "internalType": "address",
              "name": "Akun_RumahMakan",
              "type": "address"
            },
            {
              "internalType": "string",
              "name": "nama",
              "type": "string"
            },
            {
              "internalType": "string",
              "name": "tanggal_pengolahan",
              "type": "string"
            },
            {
              "internalType": "bool",
              "name": "status_kehalalan",
              "type": "bool"
            },
            {
              "internalType": "uint256",
              "name": "date",
              "type": "uint256"
            }
          ],
          "internalType": "struct Trace.Makanan",
          "name": "",
          "type": "tuple"
        },
        {
          "components": [
            {
              "internalType": "string",
              "name": "ID",
              "type": "string"
            },
            {
              "internalType": "string",
              "name": "ID_ProdukRPH",
              "type": "string"
            },
            {
              "internalType": "address",
              "name": "Akun_Distributor",
              "type": "address"
            },
            {
              "internalType": "string",
              "name": "tanggal_penyimpanan",
              "type": "string"
            },
            {
              "internalType": "string",
              "name": "tanggal_pengiriman",
              "type": "string"
            },
            {
              "internalType": "string",
              "name": "tanggal_penerimaan",
              "type": "string"
            },
            {
              "internalType": "bool",
              "name": "status_kehalalan",
              "type": "bool"
            },
            {
              "internalType": "uint256",
              "name": "date",
              "type": "uint256"
            }
          ],
          "internalType": "struct Trace.ProdukDistributor",
          "name": "",
          "type": "tuple"
        },
        {
          "components": [
            {
              "internalType": "string",
              "name": "ID",
              "type": "string"
            },
            {
              "internalType": "string",
              "name": "ID_Pemotongan",
              "type": "string"
            },
            {
              "internalType": "address",
              "name": "Akun_RPH",
              "type": "address"
            },
            {
              "internalType": "bool",
              "name": "status_kehalalan",
              "type": "bool"
            },
            {
              "internalType": "uint256",
              "name": "date",
              "type": "uint256"
            }
          ],
          "internalType": "struct Trace.ProdukRPH",
          "name": "",
          "type": "tuple"
        },
        {
          "components": [
            {
              "internalType": "string",
              "name": "ID",
              "type": "string"
            },
            {
              "internalType": "string",
              "name": "ID_Supplier",
              "type": "string"
            },
            {
              "internalType": "address",
              "name": "Akun_RPH",
              "type": "address"
            },
            {
              "internalType": "string",
              "name": "tanggal_pemotongan",
              "type": "string"
            },
            {
              "internalType": "bool",
              "name": "status_kehalalan",
              "type": "bool"
            },
            {
              "internalType": "uint256",
              "name": "date",
              "type": "uint256"
            }
          ],
          "internalType": "struct Trace.Pemotongan",
          "name": "",
          "type": "tuple"
        },
        {
          "components": [
            {
              "internalType": "string",
              "name": "ID",
              "type": "string"
            },
            {
              "internalType": "address",
              "name": "Akun_Supplier",
              "type": "address"
            },
            {
              "internalType": "string",
              "name": "jenis_kelamin",
              "type": "string"
            },
            {
              "internalType": "string",
              "name": "berat_sapi",
              "type": "string"
            },
            {
              "internalType": "string",
              "name": "tanggal_pengiriman",
              "type": "string"
            },
            {
              "internalType": "bool",
              "name": "status_kehalalan",
              "type": "bool"
            },
            {
              "internalType": "uint256",
              "name": "date",
              "type": "uint256"
            }
          ],
          "internalType": "struct Trace.Supplier",
          "name": "",
          "type": "tuple"
        }
      ],
      "stateMutability": "view",
      "type": "function"
    },
    {
      "inputs": [
        {
          "internalType": "bytes32",
          "name": "role",
          "type": "bytes32"
        }
      ],
      "name": "getRoleAdmin",
      "outputs": [
        {
          "internalType": "bytes32",
          "name": "",
          "type": "bytes32"
        }
      ],
      "stateMutability": "view",
      "type": "function"
    },
    {
      "inputs": [
        {
          "internalType": "bytes32",
          "name": "role",
          "type": "bytes32"
        },
        {
          "internalType": "address",
          "name": "account",
          "type": "address"
        }
      ],
      "name": "grantRole",
      "outputs": [],
      "stateMutability": "nonpayable",
      "type": "function"
    },
    {
      "inputs": [
        {
          "internalType": "bytes32",
          "name": "role",
          "type": "bytes32"
        },
        {
          "internalType": "address",
          "name": "account",
          "type": "address"
        }
      ],
      "name": "hasRole",
      "outputs": [
        {
          "internalType": "bool",
          "name": "",
          "type": "bool"
        }
      ],
      "stateMutability": "view",
      "type": "function"
    },
    {
      "inputs": [
        {
          "internalType": "string",
          "name": "_ID_ProdukDistributor",
          "type": "string"
        },
        {
          "internalType": "string",
          "name": "_nama",
          "type": "string"
        },
        {
          "internalType": "string",
          "name": "_tanggal_pengolahan",
          "type": "string"
        },
        {
          "internalType": "bool",
          "name": "_status_kehalalan",
          "type": "bool"
        }
      ],
      "name": "inputMakanan",
      "outputs": [
        {
          "internalType": "string",
          "name": "",
          "type": "string"
        }
      ],
      "stateMutability": "nonpayable",
      "type": "function"
    },
    {
      "inputs": [
        {
          "internalType": "string",
          "name": "_ID_Supplier",
          "type": "string"
        },
        {
          "internalType": "string",
          "name": "_tanggal_pemotongan",
          "type": "string"
        },
        {
          "internalType": "bool",
          "name": "_status_kehalalan",
          "type": "bool"
        }
      ],
      "name": "inputPemotongan",
      "outputs": [],
      "stateMutability": "nonpayable",
      "type": "function"
    },
    {
      "inputs": [
        {
          "internalType": "string",
          "name": "_ID_ProdukRPH",
          "type": "string"
        },
        {
          "internalType": "string",
          "name": "_tanggal_penyimpanan",
          "type": "string"
        },
        {
          "internalType": "string",
          "name": "_tanggal_pengiriman",
          "type": "string"
        },
        {
          "internalType": "string",
          "name": "_tanggal_penerimaan",
          "type": "string"
        },
        {
          "internalType": "bool",
          "name": "_status_kehalalan",
          "type": "bool"
        }
      ],
      "name": "inputProdukDistributor",
      "outputs": [],
      "stateMutability": "nonpayable",
      "type": "function"
    },
    {
      "inputs": [
        {
          "internalType": "string",
          "name": "_ID_Pemotongan",
          "type": "string"
        },
        {
          "internalType": "bool",
          "name": "_status_kehalalan",
          "type": "bool"
        }
      ],
      "name": "inputProdukRPH",
      "outputs": [],
      "stateMutability": "nonpayable",
      "type": "function"
    },
    {
      "inputs": [
        {
          "internalType": "address",
          "name": "account",
          "type": "address"
        },
        {
          "internalType": "bytes32",
          "name": "jenis_akses",
          "type": "bytes32"
        },
        {
          "internalType": "string",
          "name": "no_sertifikat",
          "type": "string"
        }
      ],
      "name": "inputStakeholder",
      "outputs": [],
      "stateMutability": "nonpayable",
      "type": "function"
    },
    {
      "inputs": [
        {
          "internalType": "string",
          "name": "_jenis_kelamin",
          "type": "string"
        },
        {
          "internalType": "string",
          "name": "_berat_sapi",
          "type": "string"
        },
        {
          "internalType": "string",
          "name": "_tanggal_pengiriman",
          "type": "string"
        },
        {
          "internalType": "bool",
          "name": "_status_kehalalan",
          "type": "bool"
        }
      ],
      "name": "inputSupplier",
      "outputs": [],
      "stateMutability": "nonpayable",
      "type": "function"
    },
    {
      "inputs": [
        {
          "internalType": "string",
          "name": "",
          "type": "string"
        }
      ],
      "name": "makanan",
      "outputs": [
        {
          "internalType": "string",
          "name": "ID",
          "type": "string"
        },
        {
          "internalType": "string",
          "name": "ID_ProdukDistributor",
          "type": "string"
        },
        {
          "internalType": "address",
          "name": "Akun_RumahMakan",
          "type": "address"
        },
        {
          "internalType": "string",
          "name": "nama",
          "type": "string"
        },
        {
          "internalType": "string",
          "name": "tanggal_pengolahan",
          "type": "string"
        },
        {
          "internalType": "bool",
          "name": "status_kehalalan",
          "type": "bool"
        },
        {
          "internalType": "uint256",
          "name": "date",
          "type": "uint256"
        }
      ],
      "stateMutability": "view",
      "type": "function"
    },
    {
      "inputs": [
        {
          "internalType": "string",
          "name": "",
          "type": "string"
        }
      ],
      "name": "pemotongan",
      "outputs": [
        {
          "internalType": "string",
          "name": "ID",
          "type": "string"
        },
        {
          "internalType": "string",
          "name": "ID_Supplier",
          "type": "string"
        },
        {
          "internalType": "address",
          "name": "Akun_RPH",
          "type": "address"
        },
        {
          "internalType": "string",
          "name": "tanggal_pemotongan",
          "type": "string"
        },
        {
          "internalType": "bool",
          "name": "status_kehalalan",
          "type": "bool"
        },
        {
          "internalType": "uint256",
          "name": "date",
          "type": "uint256"
        }
      ],
      "stateMutability": "view",
      "type": "function"
    },
    {
      "inputs": [
        {
          "internalType": "string",
          "name": "",
          "type": "string"
        }
      ],
      "name": "produkDistributor",
      "outputs": [
        {
          "internalType": "string",
          "name": "ID",
          "type": "string"
        },
        {
          "internalType": "string",
          "name": "ID_ProdukRPH",
          "type": "string"
        },
        {
          "internalType": "address",
          "name": "Akun_Distributor",
          "type": "address"
        },
        {
          "internalType": "string",
          "name": "tanggal_penyimpanan",
          "type": "string"
        },
        {
          "internalType": "string",
          "name": "tanggal_pengiriman",
          "type": "string"
        },
        {
          "internalType": "string",
          "name": "tanggal_penerimaan",
          "type": "string"
        },
        {
          "internalType": "bool",
          "name": "status_kehalalan",
          "type": "bool"
        },
        {
          "internalType": "uint256",
          "name": "date",
          "type": "uint256"
        }
      ],
      "stateMutability": "view",
      "type": "function"
    },
    {
      "inputs": [
        {
          "internalType": "string",
          "name": "",
          "type": "string"
        }
      ],
      "name": "produkRPH",
      "outputs": [
        {
          "internalType": "string",
          "name": "ID",
          "type": "string"
        },
        {
          "internalType": "string",
          "name": "ID_Pemotongan",
          "type": "string"
        },
        {
          "internalType": "address",
          "name": "Akun_RPH",
          "type": "address"
        },
        {
          "internalType": "bool",
          "name": "status_kehalalan",
          "type": "bool"
        },
        {
          "internalType": "uint256",
          "name": "date",
          "type": "uint256"
        }
      ],
      "stateMutability": "view",
      "type": "function"
    },
    {
      "inputs": [
        {
          "internalType": "bytes32",
          "name": "role",
          "type": "bytes32"
        },
        {
          "internalType": "address",
          "name": "account",
          "type": "address"
        }
      ],
      "name": "renounceRole",
      "outputs": [],
      "stateMutability": "nonpayable",
      "type": "function"
    },
    {
      "inputs": [
        {
          "internalType": "bytes32",
          "name": "role",
          "type": "bytes32"
        },
        {
          "internalType": "address",
          "name": "account",
          "type": "address"
        }
      ],
      "name": "revokeRole",
      "outputs": [],
      "stateMutability": "nonpayable",
      "type": "function"
    },
    {
      "inputs": [
        {
          "internalType": "address",
          "name": "",
          "type": "address"
        }
      ],
      "name": "stakeholder",
      "outputs": [
        {
          "internalType": "address",
          "name": "account",
          "type": "address"
        },
        {
          "internalType": "string",
          "name": "jenis_akses",
          "type": "string"
        },
        {
          "internalType": "string",
          "name": "no_sertifikat",
          "type": "string"
        },
        {
          "internalType": "uint256",
          "name": "date",
          "type": "uint256"
        }
      ],
      "stateMutability": "view",
      "type": "function"
    },
    {
      "inputs": [
        {
          "internalType": "string",
          "name": "",
          "type": "string"
        }
      ],
      "name": "supplier",
      "outputs": [
        {
          "internalType": "string",
          "name": "ID",
          "type": "string"
        },
        {
          "internalType": "address",
          "name": "Akun_Supplier",
          "type": "address"
        },
        {
          "internalType": "string",
          "name": "jenis_kelamin",
          "type": "string"
        },
        {
          "internalType": "string",
          "name": "berat_sapi",
          "type": "string"
        },
        {
          "internalType": "string",
          "name": "tanggal_pengiriman",
          "type": "string"
        },
        {
          "internalType": "bool",
          "name": "status_kehalalan",
          "type": "bool"
        },
        {
          "internalType": "uint256",
          "name": "date",
          "type": "uint256"
        }
      ],
      "stateMutability": "view",
      "type": "function"
    },
    {
      "inputs": [
        {
          "internalType": "bytes4",
          "name": "interfaceId",
          "type": "bytes4"
        }
      ],
      "name": "supportsInterface",
      "outputs": [
        {
          "internalType": "bool",
          "name": "",
          "type": "bool"
        }
      ],
      "stateMutability": "view",
      "type": "function"
    }
  ],
  "bytecode": "0x60806040523480156200001157600080fd5b506200001f60003362000025565b620000d5565b62000031828262000035565b5050565b6000828152602081815260408083206001600160a01b038516845290915290205460ff1662000031576000828152602081815260408083206001600160a01b03851684529091529020805460ff19166001179055620000913390565b6001600160a01b0316816001600160a01b0316837f2f8788117e7eff1d82e926ec794901d17c78024a50270940304540a733656f0d60405160405180910390a45050565b6143a980620000e56000396000f3fe608060405234801561001057600080fd5b50600436106101a35760003560e01c80634d2454c7116100ee578063b38934fc11610097578063deac2e0511610071578063deac2e0514610433578063e64c4ef214610458578063e926eb961461046b578063f813b6f01461049257600080fd5b8063b38934fc146103dc578063c4f646f7146103fc578063d547741f1461042057600080fd5b806391d14854116100c857806391d14854146103765780639c26149f146103ad578063a217fddf146103d457600080fd5b80634d2454c71461032c5780635783d5a71461033f578063719be8ca1461036357600080fd5b8063248a9ca3116101505780633c009cd71161012a5780633c009cd7146102cc5780634bb4a00f146102f25780634ce18e4a1461030557600080fd5b8063248a9ca3146102835780632f2ff15d146102a657806336568abe146102b957600080fd5b806316f13e751161018157806316f13e751461022b578063225e69d51461024057806323138d6d1461026357600080fd5b806301ffc9a7146101a857806308919dc9146101d05780630a200f6914610205575b600080fd5b6101bb6101b6366004613401565b6104b9565b60405190151581526020015b60405180910390f35b6101f77f58bd82b5be4fe0ab9451464d252f5b165e247e7ccc04cb7f3c29168b9be6088b81565b6040519081526020016101c7565b6102186102133660046134ff565b610552565b6040516101c7979695949392919061358c565b61023e610239366004613614565b6107ca565b005b61025361024e366004613679565b610a46565b6040516101c79493929190613694565b610276610271366004613679565b610b89565b6040516101c791906136da565b6101f761029136600461373d565b60009081526020819052604090206001015490565b61023e6102b4366004613756565b610d28565b61023e6102c7366004613756565b610d52565b6102df6102da3660046134ff565b610dde565b6040516101c79796959493929190613779565b61023e6103003660046137c1565b610f35565b6101f77fa195f952fbc977b41b0dac4f26325301606d2789b6e6e1f593ea183a62e7a03381565b61023e61033a366004613835565b6111c1565b61035261034d3660046134ff565b6113cb565b6040516101c7959493929190613b0c565b61023e610371366004613c32565b612198565b6101bb610384366004613756565b6000918252602082815260408084206001600160a01b0393909316845291905290205460ff1690565b6101f77f85faced7bde13e1a7dad704b895f006e704f207617d68166b31ba2d79624862d81565b6101f7600081565b6103ef6103ea366004613835565b61227f565b6040516101c79190613c89565b61040f61040a3660046134ff565b61252e565b6040516101c7959493929190613c9c565b61023e61042e366004613756565b612698565b6104466104413660046134ff565b6126bd565b6040516101c796959493929190613ce8565b61023e610466366004613d46565b6128a7565b6101f77ff4649f2a97b4905837fc846dcfefa3e2561c3a9744fc53688b4d0bcb33e49f9881565b6104a56104a03660046134ff565b612b72565b6040516101c7989796959493929190613e04565b60007fffffffff0000000000000000000000000000000000000000000000000000000082167f7965db0b00000000000000000000000000000000000000000000000000000000148061054c57507f01ffc9a7000000000000000000000000000000000000000000000000000000007fffffffff000000000000000000000000000000000000000000000000000000008316145b92915050565b805160208183018101805160078252928201919093012091528054819061057890613e8f565b80601f01602080910402602001604051908101604052809291908181526020018280546105a490613e8f565b80156105f15780601f106105c6576101008083540402835291602001916105f1565b820191906000526020600020905b8154815290600101906020018083116105d457829003601f168201915b505050600184015460028501805494956001600160a01b0390921694919350915061061b90613e8f565b80601f016020809104026020016040519081016040528092919081815260200182805461064790613e8f565b80156106945780601f1061066957610100808354040283529160200191610694565b820191906000526020600020905b81548152906001019060200180831161067757829003601f168201915b5050505050908060030180546106a990613e8f565b80601f01602080910402602001604051908101604052809291908181526020018280546106d590613e8f565b80156107225780601f106106f757610100808354040283529160200191610722565b820191906000526020600020905b81548152906001019060200180831161070557829003601f168201915b50505050509080600401805461073790613e8f565b80601f016020809104026020016040519081016040528092919081815260200182805461076390613e8f565b80156107b05780601f10610785576101008083540402835291602001916107b0565b820191906000526020600020905b81548152906001019060200180831161079357829003601f168201915b505050506005830154600690930154919260ff1691905087565b7f58bd82b5be4fe0ab9451464d252f5b165e247e7ccc04cb7f3c29168b9be6088b6107f481612e78565b6040805160008152602081019182905251812090600890610816908690613ee2565b9081526040516020918190038201812061083292909101613efe565b604051602081830303815290604052805190602001200361089a5760405162461bcd60e51b815260206004820152601f60248201527f446174612050656d6f746f6e67616e20546964616b205465726461667461720060448201526064015b60405180910390fd5b6001821515146108ec5760405162461bcd60e51b815260206004820152601960248201527f5374617475732050726f64756b2068617275732068616c616c000000000000006044820152606401610891565b600380549060006108fc83613fa3565b9190505550600061090e600354612e85565b60405160200161091e9190613fdb565b60408051601f1981840301815260a083018252808352602083018790523383830152600160608401524260808401529051909250600990610960908490613ee2565b9081526040519081900360200190208151819061097d908261406e565b5060208201516001820190610992908261406e565b506040828101516002830180546060860151151574010000000000000000000000000000000000000000027fffffffffffffffffffffff0000000000000000000000000000000000000000009091166001600160a01b0390931692909217919091179055608090920151600390910155517f305f4a5d684fc34fab0fa76edeae83280fdcf1e5410a5e921a6ad748e616f46e90610a389083908790339088904290613c9c565b60405180910390a150505050565b600660205260009081526040902080546001820180546001600160a01b039092169291610a7290613e8f565b80601f0160208091040260200160405190810160405280929190818152602001828054610a9e90613e8f565b8015610aeb5780601f10610ac057610100808354040283529160200191610aeb565b820191906000526020600020905b815481529060010190602001808311610ace57829003601f168201915b505050505090806002018054610b0090613e8f565b80601f0160208091040260200160405190810160405280929190818152602001828054610b2c90613e8f565b8015610b795780601f10610b4e57610100808354040283529160200191610b79565b820191906000526020600020905b815481529060010190602001808311610b5c57829003601f168201915b5050505050908060030154905084565b610bbd604051806080016040528060006001600160a01b031681526020016060815260200160608152602001600081525090565b6001600160a01b03808316600090815260066020908152604080832081516080810190925280549094168152600184018054939491939192840191610c0190613e8f565b80601f0160208091040260200160405190810160405280929190818152602001828054610c2d90613e8f565b8015610c7a5780601f10610c4f57610100808354040283529160200191610c7a565b820191906000526020600020905b815481529060010190602001808311610c5d57829003601f168201915b50505050508152602001600282018054610c9390613e8f565b80601f0160208091040260200160405190810160405280929190818152602001828054610cbf90613e8f565b8015610d0c5780601f10610ce157610100808354040283529160200191610d0c565b820191906000526020600020905b815481529060010190602001808311610cef57829003601f168201915b5050509183525050600391909101546020909101529392505050565b600082815260208190526040902060010154610d4381612e78565b610d4d8383612f43565b505050565b6001600160a01b0381163314610dd05760405162461bcd60e51b815260206004820152602f60248201527f416363657373436f6e74726f6c3a2063616e206f6e6c792072656e6f756e636560448201527f20726f6c657320666f722073656c6600000000000000000000000000000000006064820152608401610891565b610dda8282612fe1565b5050565b8051602081830181018051600b82529282019190930120915280548190610e0490613e8f565b80601f0160208091040260200160405190810160405280929190818152602001828054610e3090613e8f565b8015610e7d5780601f10610e5257610100808354040283529160200191610e7d565b820191906000526020600020905b815481529060010190602001808311610e6057829003601f168201915b505050505090806001018054610e9290613e8f565b80601f0160208091040260200160405190810160405280929190818152602001828054610ebe90613e8f565b8015610f0b5780601f10610ee057610100808354040283529160200191610f0b565b820191906000526020600020905b815481529060010190602001808311610eee57829003601f168201915b505050600284015460038501805494956001600160a01b039092169491935091506106a990613e8f565b7f58bd82b5be4fe0ab9451464d252f5b165e247e7ccc04cb7f3c29168b9be6088b610f5f81612e78565b6040805160008152602081019182905251812090600790610f81908790613ee2565b90815260405160209181900382018120610f9d92909101613efe565b60405160208183030381529060405280519060200120036110005760405162461bcd60e51b815260206004820152601d60248201527f4461746120537570706c69657220546964616b205465726461667461720000006044820152606401610891565b6001821515146110525760405162461bcd60e51b815260206004820152601960248201527f5374617475732050726f64756b2068617275732068616c616c000000000000006044820152606401610891565b6002805490600061106283613fa3565b91905055506000611074600254612e85565b604051602001611084919061416a565b60408051601f1981840301815260c0830182528083526020830188905233838301526060830187905285151560808401524260a084015290519092506008906110ce908490613ee2565b908152604051908190036020019020815181906110eb908261406e565b5060208201516001820190611100908261406e565b5060408201516002820180547fffffffffffffffffffffffff0000000000000000000000000000000000000000166001600160a01b0390921691909117905560608201516003820190611153908261406e565b50608082015160048201805460ff191691151591909117905560a0909101516005909101556040517f47f19c6ed542ffbc6e9d3a973d0bf3d454cd4685a505b30c608abcb951fa5dd1906111b290839088903390899089904290613ce8565b60405180910390a15050505050565b7ff4649f2a97b4905837fc846dcfefa3e2561c3a9744fc53688b4d0bcb33e49f986111eb81612e78565b60018215151461123d5760405162461bcd60e51b815260206004820152601960248201527f5374617475732050726f64756b2068617275732068616c616c000000000000006044820152606401610891565b6001805490600061124d83613fa3565b9190505550600061125f600154612e85565b60405160200161126f91906141a2565b60408051601f1981840301815260e083018252808352336020840152828201899052606083018890526080830187905285151560a08401524260c084015290519092506007906112c0908490613ee2565b908152604051908190036020019020815181906112dd908261406e565b5060208201516001820180547fffffffffffffffffffffffff0000000000000000000000000000000000000000166001600160a01b0390921691909117905560408201516002820190611330908261406e565b5060608201516003820190611345908261406e565b506080820151600482019061135a908261406e565b5060a082015160058201805460ff191691151591909117905560c0909101516006909101556040517f5da419747e530a2d844a7b7945e29c8a0e122943a7d19b82b66dce24d54f59df906113bb90839033908a908a908a908a90429061358c565b60405180910390a1505050505050565b6114166040518060e00160405280606081526020016060815260200160006001600160a01b031681526020016060815260200160608152602001600015158152602001600081525090565b611469604051806101000160405280606081526020016060815260200160006001600160a01b03168152602001606081526020016060815260200160608152602001600015158152602001600081525090565b6114a66040518060a00160405280606081526020016060815260200160006001600160a01b03168152602001600015158152602001600081525090565b6114ea6040518060c00160405280606081526020016060815260200160006001600160a01b0316815260200160608152602001600015158152602001600081525090565b6115356040518060e001604052806060815260200160006001600160a01b03168152602001606081526020016060815260200160608152602001600015158152602001600081525090565b6000600b876040516115479190613ee2565b90815260200160405180910390206040518060e001604052908160008201805461157090613e8f565b80601f016020809104026020016040519081016040528092919081815260200182805461159c90613e8f565b80156115e95780601f106115be576101008083540402835291602001916115e9565b820191906000526020600020905b8154815290600101906020018083116115cc57829003601f168201915b5050505050815260200160018201805461160290613e8f565b80601f016020809104026020016040519081016040528092919081815260200182805461162e90613e8f565b801561167b5780601f106116505761010080835404028352916020019161167b565b820191906000526020600020905b81548152906001019060200180831161165e57829003601f168201915b505050918352505060028201546001600160a01b031660208201526003820180546040909201916116ab90613e8f565b80601f01602080910402602001604051908101604052809291908181526020018280546116d790613e8f565b80156117245780601f106116f957610100808354040283529160200191611724565b820191906000526020600020905b81548152906001019060200180831161170757829003601f168201915b5050505050815260200160048201805461173d90613e8f565b80601f016020809104026020016040519081016040528092919081815260200182805461176990613e8f565b80156117b65780601f1061178b576101008083540402835291602001916117b6565b820191906000526020600020905b81548152906001019060200180831161179957829003601f168201915b5050509183525050600582015460ff161515602080830191909152600690920154604091820152908201519051919250600091600a916117f591613ee2565b90815260200160405180910390206040518061010001604052908160008201805461181f90613e8f565b80601f016020809104026020016040519081016040528092919081815260200182805461184b90613e8f565b80156118985780601f1061186d57610100808354040283529160200191611898565b820191906000526020600020905b81548152906001019060200180831161187b57829003601f168201915b505050505081526020016001820180546118b190613e8f565b80601f01602080910402602001604051908101604052809291908181526020018280546118dd90613e8f565b801561192a5780601f106118ff5761010080835404028352916020019161192a565b820191906000526020600020905b81548152906001019060200180831161190d57829003601f168201915b505050918352505060028201546001600160a01b0316602082015260038201805460409092019161195a90613e8f565b80601f016020809104026020016040519081016040528092919081815260200182805461198690613e8f565b80156119d35780601f106119a8576101008083540402835291602001916119d3565b820191906000526020600020905b8154815290600101906020018083116119b657829003601f168201915b505050505081526020016004820180546119ec90613e8f565b80601f0160208091040260200160405190810160405280929190818152602001828054611a1890613e8f565b8015611a655780601f10611a3a57610100808354040283529160200191611a65565b820191906000526020600020905b815481529060010190602001808311611a4857829003601f168201915b50505050508152602001600582018054611a7e90613e8f565b80601f0160208091040260200160405190810160405280929190818152602001828054611aaa90613e8f565b8015611af75780601f10611acc57610100808354040283529160200191611af7565b820191906000526020600020905b815481529060010190602001808311611ada57829003601f168201915b5050509183525050600682015460ff161515602080830191909152600790920154604091820152908201519051919250600091600991611b3691613ee2565b90815260200160405180910390206040518060a0016040529081600082018054611b5f90613e8f565b80601f0160208091040260200160405190810160405280929190818152602001828054611b8b90613e8f565b8015611bd85780601f10611bad57610100808354040283529160200191611bd8565b820191906000526020600020905b815481529060010190602001808311611bbb57829003601f168201915b50505050508152602001600182018054611bf190613e8f565b80601f0160208091040260200160405190810160405280929190818152602001828054611c1d90613e8f565b8015611c6a5780601f10611c3f57610100808354040283529160200191611c6a565b820191906000526020600020905b815481529060010190602001808311611c4d57829003601f168201915b505050918352505060028201546001600160a01b0381166020808401919091527401000000000000000000000000000000000000000090910460ff1615156040808401919091526003909301546060909201919091528201519051919250600091600891611cd791613ee2565b90815260200160405180910390206040518060c0016040529081600082018054611d0090613e8f565b80601f0160208091040260200160405190810160405280929190818152602001828054611d2c90613e8f565b8015611d795780601f10611d4e57610100808354040283529160200191611d79565b820191906000526020600020905b815481529060010190602001808311611d5c57829003601f168201915b50505050508152602001600182018054611d9290613e8f565b80601f0160208091040260200160405190810160405280929190818152602001828054611dbe90613e8f565b8015611e0b5780601f10611de057610100808354040283529160200191611e0b565b820191906000526020600020905b815481529060010190602001808311611dee57829003601f168201915b505050918352505060028201546001600160a01b03166020820152600382018054604090920191611e3b90613e8f565b80601f0160208091040260200160405190810160405280929190818152602001828054611e6790613e8f565b8015611eb45780601f10611e8957610100808354040283529160200191611eb4565b820191906000526020600020905b815481529060010190602001808311611e9757829003601f168201915b5050509183525050600482015460ff161515602080830191909152600590920154604091820152908201519051919250600091600791611ef391613ee2565b90815260200160405180910390206040518060e0016040529081600082018054611f1c90613e8f565b80601f0160208091040260200160405190810160405280929190818152602001828054611f4890613e8f565b8015611f955780601f10611f6a57610100808354040283529160200191611f95565b820191906000526020600020905b815481529060010190602001808311611f7857829003601f168201915b505050918352505060018201546001600160a01b03166020820152600282018054604090920191611fc590613e8f565b80601f0160208091040260200160405190810160405280929190818152602001828054611ff190613e8f565b801561203e5780601f106120135761010080835404028352916020019161203e565b820191906000526020600020905b81548152906001019060200180831161202157829003601f168201915b5050505050815260200160038201805461205790613e8f565b80601f016020809104026020016040519081016040528092919081815260200182805461208390613e8f565b80156120d05780601f106120a5576101008083540402835291602001916120d0565b820191906000526020600020905b8154815290600101906020018083116120b357829003601f168201915b505050505081526020016004820180546120e990613e8f565b80601f016020809104026020016040519081016040528092919081815260200182805461211590613e8f565b80156121625780601f1061213757610100808354040283529160200191612162565b820191906000526020600020905b81548152906001019060200180831161214557829003601f168201915b5050509183525050600582015460ff1615156020820152600690910154604090910152949b939a50919850965091945092505050565b60006121a381612e78565b6121ad8385613060565b6040518060800160405280856001600160a01b03168152602001846040516020016121da91815260200190565b60408051808303601f19018152918152908252602080830186905242928201929092526001600160a01b0387811660009081526006845291909120835181547fffffffffffffffffffffffff0000000000000000000000000000000000000000169216919091178155908201516001820190612256908261406e565b506040820151600282019061226b908261406e565b506060820151816003015590505050505050565b60607fa195f952fbc977b41b0dac4f26325301606d2789b6e6e1f593ea183a62e7a0336122ab81612e78565b6040805160008152602081019182905251812090600a906122cd908990613ee2565b908152604051602091819003820181206122e992909101613efe565b604051602081830303815290604052805190602001200361234c5760405162461bcd60e51b815260206004820152601f60248201527f446174612050726f64756b2052504820546964616b20546572646166746172006044820152606401610891565b60018315151461239e5760405162461bcd60e51b815260206004820152601960248201527f5374617475732050726f64756b2068617275732068616c616c000000000000006044820152606401610891565b600580549060006123ae83613fa3565b919050555060006123c0600554612e85565b6040516020016123d091906141e7565b60408051601f1981840301815260e083018252808352602083018a90523383830152606083018990526080830188905286151560a08401524260c08401529051909250600b90612421908490613ee2565b9081526040519081900360200190208151819061243e908261406e565b5060208201516001820190612453908261406e565b5060408201516002820180547fffffffffffffffffffffffff0000000000000000000000000000000000000000166001600160a01b03909216919091179055606082015160038201906124a6908261406e565b50608082015160048201906124bb908261406e565b5060a082015160058201805460ff191691151591909117905560c0909101516006909101556040517fa0238f7ebdad108fecaf0e455720a289873d718ab34c00f835c6be2f7f053f2f9061251c9083908a9033908b908b908b904290613779565b60405180910390a19695505050505050565b805160208183018101805160098252928201919093012091528054819061255490613e8f565b80601f016020809104026020016040519081016040528092919081815260200182805461258090613e8f565b80156125cd5780601f106125a2576101008083540402835291602001916125cd565b820191906000526020600020905b8154815290600101906020018083116125b057829003601f168201915b5050505050908060010180546125e290613e8f565b80601f016020809104026020016040519081016040528092919081815260200182805461260e90613e8f565b801561265b5780601f106126305761010080835404028352916020019161265b565b820191906000526020600020905b81548152906001019060200180831161263e57829003601f168201915b50505050600283015460039093015491926001600160a01b038116927401000000000000000000000000000000000000000090910460ff16915085565b6000828152602081905260409020600101546126b381612e78565b610d4d8383612fe1565b80516020818301810180516008825292820191909301209152805481906126e390613e8f565b80601f016020809104026020016040519081016040528092919081815260200182805461270f90613e8f565b801561275c5780601f106127315761010080835404028352916020019161275c565b820191906000526020600020905b81548152906001019060200180831161273f57829003601f168201915b50505050509080600101805461277190613e8f565b80601f016020809104026020016040519081016040528092919081815260200182805461279d90613e8f565b80156127ea5780601f106127bf576101008083540402835291602001916127ea565b820191906000526020600020905b8154815290600101906020018083116127cd57829003601f168201915b505050600284015460038501805494956001600160a01b0390921694919350915061281490613e8f565b80601f016020809104026020016040519081016040528092919081815260200182805461284090613e8f565b801561288d5780601f106128625761010080835404028352916020019161288d565b820191906000526020600020905b81548152906001019060200180831161287057829003601f168201915b505050506004830154600590930154919260ff1691905086565b7f85faced7bde13e1a7dad704b895f006e704f207617d68166b31ba2d79624862d6128d181612e78565b60408051600081526020810191829052518120906009906128f3908990613ee2565b9081526040516020918190038201812061290f92909101613efe565b60405160208183030381529060405280519060200120036129725760405162461bcd60e51b815260206004820152601f60248201527f446174612050726f64756b2052504820546964616b20546572646166746172006044820152606401610891565b6001821515146129c45760405162461bcd60e51b815260206004820152601960248201527f5374617475732050726f64756b2068617275732068616c616c000000000000006044820152606401610891565b600480549060006129d483613fa3565b919050555060006129e6600454612e85565b6040516020016129f6919061422c565b60408051601f1981840301815261010083018252808352602083018a90523383830152606083018990526080830188905260a0830187905285151560c08401524260e08401529051909250600a90612a4f908490613ee2565b90815260405190819003602001902081518190612a6c908261406e565b5060208201516001820190612a81908261406e565b5060408201516002820180547fffffffffffffffffffffffff0000000000000000000000000000000000000000166001600160a01b0390921691909117905560608201516003820190612ad4908261406e565b5060808201516004820190612ae9908261406e565b5060a08201516005820190612afe908261406e565b5060c082015160068201805460ff191691151591909117905560e0909101516007909101556040517fca5e87f08d1fb65ef38f4b64816370124acbc059d2e0e81c414baa4e5bfa0c5290612b619083908a9033908b908b908b908b904290613e04565b60405180910390a150505050505050565b8051602081830181018051600a82529282019190930120915280548190612b9890613e8f565b80601f0160208091040260200160405190810160405280929190818152602001828054612bc490613e8f565b8015612c115780601f10612be657610100808354040283529160200191612c11565b820191906000526020600020905b815481529060010190602001808311612bf457829003601f168201915b505050505090806001018054612c2690613e8f565b80601f0160208091040260200160405190810160405280929190818152602001828054612c5290613e8f565b8015612c9f5780601f10612c7457610100808354040283529160200191612c9f565b820191906000526020600020905b815481529060010190602001808311612c8257829003601f168201915b505050600284015460038501805494956001600160a01b03909216949193509150612cc990613e8f565b80601f0160208091040260200160405190810160405280929190818152602001828054612cf590613e8f565b8015612d425780601f10612d1757610100808354040283529160200191612d42565b820191906000526020600020905b815481529060010190602001808311612d2557829003601f168201915b505050505090806004018054612d5790613e8f565b80601f0160208091040260200160405190810160405280929190818152602001828054612d8390613e8f565b8015612dd05780601f10612da557610100808354040283529160200191612dd0565b820191906000526020600020905b815481529060010190602001808311612db357829003601f168201915b505050505090806005018054612de590613e8f565b80601f0160208091040260200160405190810160405280929190818152602001828054612e1190613e8f565b8015612e5e5780601f10612e3357610100808354040283529160200191612e5e565b820191906000526020600020905b815481529060010190602001808311612e4157829003601f168201915b505050506006830154600790930154919260ff1691905088565b612e82813361306a565b50565b60606000612e92836130dd565b600101905060008167ffffffffffffffff811115612eb257612eb2613443565b6040519080825280601f01601f191660200182016040528015612edc576020820181803683370190505b5090508181016020015b7fffffffffffffffffffffffffffffffffffffffffffffffffffffffffffffffff017f3031323334353637383961626364656600000000000000000000000000000000600a86061a8153600a8504945084612ee657509392505050565b6000828152602081815260408083206001600160a01b038516845290915290205460ff16610dda576000828152602081815260408083206001600160a01b03851684529091529020805460ff19166001179055612f9d3390565b6001600160a01b0316816001600160a01b0316837f2f8788117e7eff1d82e926ec794901d17c78024a50270940304540a733656f0d60405160405180910390a45050565b6000828152602081815260408083206001600160a01b038516845290915290205460ff1615610dda576000828152602081815260408083206001600160a01b0385168085529252808320805460ff1916905551339285917ff6391f5c32d9c69d2a47ea670b442974b53935d1edc7fd64eb21e047a839171b9190a45050565b610dda8282612f43565b6000828152602081815260408083206001600160a01b038516845290915290205460ff16610dda5761309b816131bf565b6130a68360206131d1565b6040516020016130b7929190614264565b60408051601f198184030181529082905262461bcd60e51b825261089191600401613c89565b6000807a184f03e93ff9f4daa797ed6e38ed64bf6a1f0100000000000000008310613126577a184f03e93ff9f4daa797ed6e38ed64bf6a1f010000000000000000830492506040015b6d04ee2d6d415b85acef81000000008310613152576d04ee2d6d415b85acef8100000000830492506020015b662386f26fc10000831061317057662386f26fc10000830492506010015b6305f5e1008310613188576305f5e100830492506008015b612710831061319c57612710830492506004015b606483106131ae576064830492506002015b600a831061054c5760010192915050565b606061054c6001600160a01b03831660145b606060006131e08360026142e5565b6131eb9060026142fc565b67ffffffffffffffff81111561320357613203613443565b6040519080825280601f01601f19166020018201604052801561322d576020820181803683370190505b5090507f3000000000000000000000000000000000000000000000000000000000000000816000815181106132645761326461430f565b60200101907effffffffffffffffffffffffffffffffffffffffffffffffffffffffffffff1916908160001a9053507f7800000000000000000000000000000000000000000000000000000000000000816001815181106132c7576132c761430f565b60200101907effffffffffffffffffffffffffffffffffffffffffffffffffffffffffffff1916908160001a90535060006133038460026142e5565b61330e9060016142fc565b90505b60018111156133ab577f303132333435363738396162636465660000000000000000000000000000000085600f166010811061334f5761334f61430f565b1a60f81b8282815181106133655761336561430f565b60200101907effffffffffffffffffffffffffffffffffffffffffffffffffffffffffffff1916908160001a90535060049490941c936133a48161433e565b9050613311565b5083156133fa5760405162461bcd60e51b815260206004820181905260248201527f537472696e67733a20686578206c656e67746820696e73756666696369656e746044820152606401610891565b9392505050565b60006020828403121561341357600080fd5b81357fffffffff00000000000000000000000000000000000000000000000000000000811681146133fa57600080fd5b7f4e487b7100000000000000000000000000000000000000000000000000000000600052604160045260246000fd5b600082601f83011261348357600080fd5b813567ffffffffffffffff8082111561349e5761349e613443565b604051601f8301601f19908116603f011681019082821181831017156134c6576134c6613443565b816040528381528660208588010111156134df57600080fd5b836020870160208301376000602085830101528094505050505092915050565b60006020828403121561351157600080fd5b813567ffffffffffffffff81111561352857600080fd5b61353484828501613472565b949350505050565b60005b8381101561355757818101518382015260200161353f565b50506000910152565b6000815180845261357881602086016020860161353c565b601f01601f19169290920160200192915050565b60e08152600061359f60e083018a613560565b6001600160a01b038916602084015282810360408401526135c08189613560565b905082810360608401526135d48188613560565b905082810360808401526135e88187613560565b94151560a0840152505060c0015295945050505050565b8035801515811461360f57600080fd5b919050565b6000806040838503121561362757600080fd5b823567ffffffffffffffff81111561363e57600080fd5b61364a85828601613472565b925050613659602084016135ff565b90509250929050565b80356001600160a01b038116811461360f57600080fd5b60006020828403121561368b57600080fd5b6133fa82613662565b6001600160a01b03851681526080602082015260006136b66080830186613560565b82810360408401526136c88186613560565b91505082606083015295945050505050565b602081526001600160a01b038251166020820152600060208301516080604084015261370960a0840182613560565b90506040840151601f198483030160608501526137268282613560565b915050606084015160808401528091505092915050565b60006020828403121561374f57600080fd5b5035919050565b6000806040838503121561376957600080fd5b8235915061365960208401613662565b60e08152600061378c60e083018a613560565b828103602084015261379e818a613560565b90506001600160a01b038816604084015282810360608401526135d48188613560565b6000806000606084860312156137d657600080fd5b833567ffffffffffffffff808211156137ee57600080fd5b6137fa87838801613472565b9450602086013591508082111561381057600080fd5b5061381d86828701613472565b92505061382c604085016135ff565b90509250925092565b6000806000806080858703121561384b57600080fd5b843567ffffffffffffffff8082111561386357600080fd5b61386f88838901613472565b9550602087013591508082111561388557600080fd5b61389188838901613472565b945060408701359150808211156138a757600080fd5b506138b487828801613472565b9250506138c3606086016135ff565b905092959194509250565b600061010082518185526138e482860182613560565b915050602083015184820360208601526138fe8282613560565b915050604083015161391b60408601826001600160a01b03169052565b50606083015184820360608601526139338282613560565b9150506080830151848203608086015261394d8282613560565b91505060a083015184820360a08601526139678282613560565b91505060c083015161397d60c086018215159052565b5060e083015160e08501528091505092915050565b6000815160a084526139a760a0850182613560565b9050602083015184820360208601526139c08282613560565b9150506001600160a01b036040840151166040850152606083015115156060850152608083015160808501528091505092915050565b6000815160c08452613a0b60c0850182613560565b905060208301518482036020860152613a248282613560565b9150506001600160a01b03604084015116604085015260608301518482036060860152613a518282613560565b91505060808301511515608085015260a083015160a08501528091505092915050565b6000815160e08452613a8960e0850182613560565b90506001600160a01b03602084015116602085015260408301518482036040860152613ab58282613560565b91505060608301518482036060860152613acf8282613560565b91505060808301518482036080860152613ae98282613560565b91505060a0830151151560a085015260c083015160c08501528091505092915050565b60a081526000865160e060a0840152613b29610180840182613560565b905060208801517fffffffffffffffffffffffffffffffffffffffffffffffffffffffffffffff60808584030160c0860152613b658383613560565b92506001600160a01b0360408b01511660e086015260608a015191508085840301610100860152613b968383613560565b925060808a01519150808584030161012086015250613bb58282613560565b91505060a0880151613bcc61014085018215159052565b5060c08801516101608401528281036020840152613bea81886138ce565b90508281036040840152613bfe8187613992565b90508281036060840152613c1281866139f6565b90508281036080840152613c268185613a74565b98975050505050505050565b600080600060608486031215613c4757600080fd5b613c5084613662565b925060208401359150604084013567ffffffffffffffff811115613c7357600080fd5b613c7f86828701613472565b9150509250925092565b6020815260006133fa6020830184613560565b60a081526000613caf60a0830188613560565b8281036020840152613cc18188613560565b6001600160a01b039690961660408401525050911515606083015260809091015292915050565b60c081526000613cfb60c0830189613560565b8281036020840152613d0d8189613560565b90506001600160a01b03871660408401528281036060840152613d308187613560565b9415156080840152505060a00152949350505050565b600080600080600060a08688031215613d5e57600080fd5b853567ffffffffffffffff80821115613d7657600080fd5b613d8289838a01613472565b96506020880135915080821115613d9857600080fd5b613da489838a01613472565b95506040880135915080821115613dba57600080fd5b613dc689838a01613472565b94506060880135915080821115613ddc57600080fd5b50613de988828901613472565b925050613df8608087016135ff565b90509295509295909350565b6000610100808352613e188184018c613560565b90508281036020840152613e2c818b613560565b90506001600160a01b03891660408401528281036060840152613e4f8189613560565b90508281036080840152613e638188613560565b905082810360a0840152613e778187613560565b94151560c0840152505060e001529695505050505050565b600181811c90821680613ea357607f821691505b602082108103613edc577f4e487b7100000000000000000000000000000000000000000000000000000000600052602260045260246000fd5b50919050565b60008251613ef481846020870161353c565b9190910192915050565b6000808354613f0c81613e8f565b60018281168015613f245760018114613f3957613f68565b60ff1984168752821515830287019450613f68565b8760005260208060002060005b85811015613f5f5781548a820152908401908201613f46565b50505082870194505b50929695505050505050565b7f4e487b7100000000000000000000000000000000000000000000000000000000600052601160045260246000fd5b60007fffffffffffffffffffffffffffffffffffffffffffffffffffffffffffffffff8203613fd457613fd4613f74565b5060010190565b7f505250480000000000000000000000000000000000000000000000000000000081526000825161401381600485016020870161353c565b9190910160040192915050565b601f821115610d4d57600081815260208120601f850160051c810160208610156140475750805b601f850160051c820191505b8181101561406657828155600101614053565b505050505050565b815167ffffffffffffffff81111561408857614088613443565b61409c816140968454613e8f565b84614020565b602080601f8311600181146140ef57600084156140b95750858301515b7fffffffffffffffffffffffffffffffffffffffffffffffffffffffffffffffff600386901b1c1916600185901b178555614066565b600085815260208120601f198616915b8281101561411e578886015182559484019460019091019084016140ff565b508582101561415a57878501517fffffffffffffffffffffffffffffffffffffffffffffffffffffffffffffffff600388901b60f8161c191681555b5050505050600190811b01905550565b7f504d54470000000000000000000000000000000000000000000000000000000081526000825161401381600485016020870161353c565b7f5355504c590000000000000000000000000000000000000000000000000000008152600082516141da81600585016020870161353c565b9190910160050192915050565b7f4d4b4e000000000000000000000000000000000000000000000000000000000081526000825161421f81600385016020870161353c565b9190910160030192915050565b7f504453540000000000000000000000000000000000000000000000000000000081526000825161401381600485016020870161353c565b7f416363657373436f6e74726f6c3a206163636f756e742000000000000000000081526000835161429c81601785016020880161353c565b7f206973206d697373696e6720726f6c652000000000000000000000000000000060179184019182015283516142d981602884016020880161353c565b01602801949350505050565b808202811582820484141761054c5761054c613f74565b8082018082111561054c5761054c613f74565b7f4e487b7100000000000000000000000000000000000000000000000000000000600052603260045260246000fd5b60008161434d5761434d613f74565b507fffffffffffffffffffffffffffffffffffffffffffffffffffffffffffffffff019056fea26469706673582212206c85b1b239f6540d8128103acf04c26c528e548534637cc19b50235579cf5f2864736f6c63430008120033",
  "linkReferences": {},
  "deployedLinkReferences": {}
}